{
  "contractName": "DStore",
  "abi": [
    {
      "inputs": [
        {
          "internalType": "uint256",
          "name": "_tollPercent",
          "type": "uint256"
        },
        {
          "internalType": "uint256",
          "name": "_startId",
          "type": "uint256"
        }
      ],
      "stateMutability": "nonpayable",
      "type": "constructor"
    },
    {
      "anonymous": false,
      "inputs": [
        {
          "components": [
            {
              "internalType": "uint256",
              "name": "id",
              "type": "uint256"
            },
            {
              "internalType": "string",
              "name": "description",
              "type": "string"
            },
            {
              "internalType": "uint256",
              "name": "price",
              "type": "uint256"
            },
            {
              "internalType": "address payable",
              "name": "owner",
              "type": "address"
            },
            {
              "internalType": "bool",
              "name": "sold",
              "type": "bool"
            },
            {
              "internalType": "address",
              "name": "soldTo",
              "type": "address"
            },
            {
              "internalType": "bool",
              "name": "deleted",
              "type": "bool"
            }
          ],
          "indexed": false,
          "internalType": "struct DStore.Product",
          "name": "product",
          "type": "tuple"
        }
      ],
      "name": "Added",
      "type": "event"
    },
    {
      "anonymous": false,
      "inputs": [
        {
          "components": [
            {
              "internalType": "uint256",
              "name": "id",
              "type": "uint256"
            },
            {
              "internalType": "string",
              "name": "description",
              "type": "string"
            },
            {
              "internalType": "uint256",
              "name": "price",
              "type": "uint256"
            },
            {
              "internalType": "address payable",
              "name": "owner",
              "type": "address"
            },
            {
              "internalType": "bool",
              "name": "sold",
              "type": "bool"
            },
            {
              "internalType": "address",
              "name": "soldTo",
              "type": "address"
            },
            {
              "internalType": "bool",
              "name": "deleted",
              "type": "bool"
            }
          ],
          "indexed": false,
          "internalType": "struct DStore.Product",
          "name": "product",
          "type": "tuple"
        }
      ],
      "name": "Deleted",
      "type": "event"
    },
    {
      "anonymous": false,
      "inputs": [
        {
          "components": [
            {
              "internalType": "uint256",
              "name": "id",
              "type": "uint256"
            },
            {
              "internalType": "string",
              "name": "description",
              "type": "string"
            },
            {
              "internalType": "uint256",
              "name": "price",
              "type": "uint256"
            },
            {
              "internalType": "address payable",
              "name": "owner",
              "type": "address"
            },
            {
              "internalType": "bool",
              "name": "sold",
              "type": "bool"
            },
            {
              "internalType": "address",
              "name": "soldTo",
              "type": "address"
            },
            {
              "internalType": "bool",
              "name": "deleted",
              "type": "bool"
            }
          ],
          "indexed": false,
          "internalType": "struct DStore.Product",
          "name": "product",
          "type": "tuple"
        }
      ],
      "name": "Sold",
      "type": "event"
    },
    {
      "anonymous": false,
      "inputs": [
        {
          "components": [
            {
              "internalType": "uint256",
              "name": "id",
              "type": "uint256"
            },
            {
              "internalType": "string",
              "name": "description",
              "type": "string"
            },
            {
              "internalType": "uint256",
              "name": "price",
              "type": "uint256"
            },
            {
              "internalType": "address payable",
              "name": "owner",
              "type": "address"
            },
            {
              "internalType": "bool",
              "name": "sold",
              "type": "bool"
            },
            {
              "internalType": "address",
              "name": "soldTo",
              "type": "address"
            },
            {
              "internalType": "bool",
              "name": "deleted",
              "type": "bool"
            }
          ],
          "indexed": false,
          "internalType": "struct DStore.Product",
          "name": "product",
          "type": "tuple"
        }
      ],
      "name": "Updated",
      "type": "event"
    },
    {
      "inputs": [],
      "name": "admin",
      "outputs": [
        {
          "internalType": "address",
          "name": "",
          "type": "address"
        }
      ],
      "stateMutability": "view",
      "type": "function",
      "constant": true
    },
    {
      "inputs": [],
      "name": "isAdmin",
      "outputs": [
        {
          "internalType": "bool",
          "name": "",
          "type": "bool"
        }
      ],
      "stateMutability": "view",
      "type": "function",
      "constant": true
    },
    {
      "inputs": [],
      "name": "getAdmin",
      "outputs": [
        {
          "internalType": "address",
          "name": "",
          "type": "address"
        }
      ],
      "stateMutability": "view",
      "type": "function",
      "constant": true
    },
    {
      "inputs": [],
      "name": "getAll",
      "outputs": [
        {
          "components": [
            {
              "internalType": "uint256",
              "name": "id",
              "type": "uint256"
            },
            {
              "internalType": "string",
              "name": "description",
              "type": "string"
            },
            {
              "internalType": "uint256",
              "name": "price",
              "type": "uint256"
            },
            {
              "internalType": "address payable",
              "name": "owner",
              "type": "address"
            },
            {
              "internalType": "bool",
              "name": "sold",
              "type": "bool"
            },
            {
              "internalType": "address",
              "name": "soldTo",
              "type": "address"
            },
            {
              "internalType": "bool",
              "name": "deleted",
              "type": "bool"
            }
          ],
          "internalType": "struct DStore.Product[]",
          "name": "",
          "type": "tuple[]"
        }
      ],
      "stateMutability": "view",
      "type": "function",
      "constant": true
    },
    {
      "inputs": [],
      "name": "getMyProducts",
      "outputs": [
        {
          "components": [
            {
              "internalType": "uint256",
              "name": "id",
              "type": "uint256"
            },
            {
              "internalType": "string",
              "name": "description",
              "type": "string"
            },
            {
              "internalType": "uint256",
              "name": "price",
              "type": "uint256"
            },
            {
              "internalType": "address payable",
              "name": "owner",
              "type": "address"
            },
            {
              "internalType": "bool",
              "name": "sold",
              "type": "bool"
            },
            {
              "internalType": "address",
              "name": "soldTo",
              "type": "address"
            },
            {
              "internalType": "bool",
              "name": "deleted",
              "type": "bool"
            }
          ],
          "internalType": "struct DStore.Product[]",
          "name": "",
          "type": "tuple[]"
        }
      ],
      "stateMutability": "view",
      "type": "function",
      "constant": true
    },
    {
      "inputs": [
        {
          "internalType": "string",
          "name": "desc",
          "type": "string"
        },
        {
          "internalType": "uint256",
          "name": "price",
          "type": "uint256"
        }
      ],
      "name": "add",
      "outputs": [],
      "stateMutability": "nonpayable",
      "type": "function"
    },
    {
      "inputs": [
        {
          "internalType": "uint256",
          "name": "id",
          "type": "uint256"
        },
        {
          "internalType": "string",
          "name": "desc",
          "type": "string"
        },
        {
          "internalType": "uint256",
          "name": "price",
          "type": "uint256"
        }
      ],
      "name": "update",
      "outputs": [],
      "stateMutability": "nonpayable",
      "type": "function"
    },
    {
      "inputs": [
        {
          "internalType": "uint256",
          "name": "id",
          "type": "uint256"
        }
      ],
      "name": "get",
      "outputs": [
        {
          "components": [
            {
              "internalType": "uint256",
              "name": "id",
              "type": "uint256"
            },
            {
              "internalType": "string",
              "name": "description",
              "type": "string"
            },
            {
              "internalType": "uint256",
              "name": "price",
              "type": "uint256"
            },
            {
              "internalType": "address payable",
              "name": "owner",
              "type": "address"
            },
            {
              "internalType": "bool",
              "name": "sold",
              "type": "bool"
            },
            {
              "internalType": "address",
              "name": "soldTo",
              "type": "address"
            },
            {
              "internalType": "bool",
              "name": "deleted",
              "type": "bool"
            }
          ],
          "internalType": "struct DStore.Product",
          "name": "",
          "type": "tuple"
        }
      ],
      "stateMutability": "view",
      "type": "function",
      "constant": true
    },
    {
      "inputs": [
        {
          "internalType": "uint256",
          "name": "id",
          "type": "uint256"
        }
      ],
      "name": "deleteProduct",
      "outputs": [],
      "stateMutability": "nonpayable",
      "type": "function"
    },
    {
      "inputs": [],
      "name": "canDelete",
      "outputs": [
        {
          "internalType": "bool",
          "name": "",
          "type": "bool"
        }
      ],
      "stateMutability": "view",
      "type": "function",
      "constant": true
    },
    {
      "inputs": [
        {
          "internalType": "uint256",
          "name": "id",
          "type": "uint256"
        }
      ],
      "name": "buy",
      "outputs": [],
      "stateMutability": "payable",
      "type": "function",
      "payable": true
    },
    {
      "inputs": [],
      "name": "getContractBalance",
      "outputs": [
        {
          "internalType": "uint256",
          "name": "",
          "type": "uint256"
        }
      ],
      "stateMutability": "view",
      "type": "function",
      "constant": true
    }
  ],
  "bytecode": "0x60806040523480156200001157600080fd5b50604051620029cc380380620029cc8339818101604052810190620000379190620000ae565b8060008190555060005460018190555033600360006101000a81548173ffffffffffffffffffffffffffffffffffffffff021916908373ffffffffffffffffffffffffffffffffffffffff16021790555081600481905550505062000113565b600081519050620000a881620000f9565b92915050565b60008060408385031215620000c257600080fd5b6000620000d28582860162000097565b9250506020620000e58582860162000097565b9150509250929050565b6000819050919050565b6200010481620000ef565b81146200011057600080fd5b50565b6128a980620001236000396000f3fe6080604052600436106100a75760003560e01c8063ad841e0711610064578063ad841e07146101be578063b6db75a0146101e7578063d96a094a14610212578063ed90c7b71461022e578063f851a44014610257578063fdca4ca314610282576100a7565b8063246b80cf146100ac57806336555b85146100d757806353ed5143146101005780636e9960c31461012b5780636f9fb98a146101565780639507d39a14610181575b600080fd5b3480156100b857600080fd5b506100c16102ad565b6040516100ce91906121f4565b60405180910390f35b3480156100e357600080fd5b506100fe60048036038101906100f99190611a07565b6102bc565b005b34801561010c57600080fd5b50610115610692565b60405161012291906121d2565b60405180910390f35b34801561013757600080fd5b50610140610a14565b60405161014d91906121b7565b60405180910390f35b34801561016257600080fd5b5061016b610a3e565b6040516101789190612393565b60405180910390f35b34801561018d57600080fd5b506101a860048036038101906101a39190611a5b565b610a46565b6040516101b5919061234f565b60405180910390f35b3480156101ca57600080fd5b506101e560048036038101906101e09190611a84565b610cac565b005b3480156101f357600080fd5b506101fc610e57565b60405161020991906121f4565b60405180910390f35b61022c60048036038101906102279190611a5b565b610eaf565b005b34801561023a57600080fd5b5061025560048036038101906102509190611a5b565b611278565b005b34801561026357600080fd5b5061026c611324565b60405161027991906121b7565b60405180910390f35b34801561028e57600080fd5b5061029761134a565b6040516102a491906121d2565b60405180910390f35b60006102b7610e57565b905090565b818160008290506000815111610307576040517f08c379a00000000000000000000000000000000000000000000000000000000081526004016102fe9061222f565b60405180910390fd5b670de0b6b3a764000082101580156103275750678ac7230489e800008211155b610366576040517f08c379a000000000000000000000000000000000000000000000000000000000815260040161035d9061230f565b60405180910390fd5b60008080600090505b60028054905081101561045b57600281815481106103b6577f4e487b7100000000000000000000000000000000000000000000000000000000600052603260045260246000fd5b906000526020600020906005020191508160040160149054906101000a900460ff1615801561043457503373ffffffffffffffffffffffffffffffffffffffff168260030160009054906101000a900473ffffffffffffffffffffffffffffffffffffffff1673ffffffffffffffffffffffffffffffffffffffff16145b156104485782806104449061272c565b9350505b80806104539061272c565b91505061036f565b5060018211156104a0576040517f08c379a0000000000000000000000000000000000000000000000000000000008152600401610497906122af565b60405180910390fd5b60006040518060e0016040528060015481526020018981526020018881526020013373ffffffffffffffffffffffffffffffffffffffff168152602001600015158152602001600073ffffffffffffffffffffffffffffffffffffffff168152602001600015158152509050600281908060018154018082558091505060019003906000526020600020906005020160009091909190915060008201518160000155602082015181600101908051906020019061055e92919061187a565b506040820151816002015560608201518160030160006101000a81548173ffffffffffffffffffffffffffffffffffffffff021916908373ffffffffffffffffffffffffffffffffffffffff16021790555060808201518160030160146101000a81548160ff02191690831515021790555060a08201518160040160006101000a81548173ffffffffffffffffffffffffffffffffffffffff021916908373ffffffffffffffffffffffffffffffffffffffff16021790555060c08201518160040160146101000a81548160ff02191690831515021790555050506001600081548092919061064c9061272c565b91905055507fd1ecc316511450ffd030c08b1e327c1f3da3f423046b88ff15a519c25e160e0a81604051610680919061234f565b60405180910390a15050505050505050565b60606000805b60028054905081101561072457600281815481106106df577f4e487b7100000000000000000000000000000000000000000000000000000000600052603260045260246000fd5b906000526020600020906005020160040160149054906101000a900460ff1661071157818061070d9061272c565b9250505b808061071c9061272c565b915050610698565b5060008167ffffffffffffffff811115610767577f4e487b7100000000000000000000000000000000000000000000000000000000600052604160045260246000fd5b6040519080825280602002602001820160405280156107a057816020015b61078d611900565b8152602001906001900390816107855790505b5090506107ab611900565b6000805b600280549050811015610a0957600281815481106107f6577f4e487b7100000000000000000000000000000000000000000000000000000000600052603260045260246000fd5b90600052602060002090600502016040518060e00160405290816000820154815260200160018201805461082990612692565b80601f016020809104026020016040519081016040528092919081815260200182805461085590612692565b80156108a25780601f10610877576101008083540402835291602001916108a2565b820191906000526020600020905b81548152906001019060200180831161088557829003601f168201915b50505050508152602001600282015481526020016003820160009054906101000a900473ffffffffffffffffffffffffffffffffffffffff1673ffffffffffffffffffffffffffffffffffffffff1673ffffffffffffffffffffffffffffffffffffffff1681526020016003820160149054906101000a900460ff161515151581526020016004820160009054906101000a900473ffffffffffffffffffffffffffffffffffffffff1673ffffffffffffffffffffffffffffffffffffffff1673ffffffffffffffffffffffffffffffffffffffff1681526020016004820160149054906101000a900460ff16151515158152505092508260c001516109f657828483815181106109dc577f4e487b7100000000000000000000000000000000000000000000000000000000600052603260045260246000fd5b602002602001018190525081806109f29061272c565b9250505b8080610a019061272c565b9150506107af565b508294505050505090565b6000600360009054906101000a900473ffffffffffffffffffffffffffffffffffffffff16905090565b600047905090565b610a4e611900565b81600080548210158015610a735750600280549050600054610a70919061248a565b82105b905080610ab5576040517f08c379a0000000000000000000000000000000000000000000000000000000008152600401610aac9061224f565b60405180910390fd5b6000600260005486610ac7919061256b565b81548110610afe577f4e487b7100000000000000000000000000000000000000000000000000000000600052603260045260246000fd5b90600052602060002090600502016040518060e001604052908160008201548152602001600182018054610b3190612692565b80601f0160208091040260200160405190810160405280929190818152602001828054610b5d90612692565b8015610baa5780601f10610b7f57610100808354040283529160200191610baa565b820191906000526020600020905b815481529060010190602001808311610b8d57829003601f168201915b50505050508152602001600282015481526020016003820160009054906101000a900473ffffffffffffffffffffffffffffffffffffffff1673ffffffffffffffffffffffffffffffffffffffff1673ffffffffffffffffffffffffffffffffffffffff1681526020016003820160149054906101000a900460ff161515151581526020016004820160009054906101000a900473ffffffffffffffffffffffffffffffffffffffff1673ffffffffffffffffffffffffffffffffffffffff1673ffffffffffffffffffffffffffffffffffffffff1681526020016004820160149054906101000a900460ff1615151515815250509050809350505050919050565b818160008290506000815111610cf7576040517f08c379a0000000000000000000000000000000000000000000000000000000008152600401610cee9061222f565b60405180910390fd5b670de0b6b3a76400008210158015610d175750678ac7230489e800008211155b610d56576040517f08c379a0000000000000000000000000000000000000000000000000000000008152600401610d4d9061230f565b60405180910390fd5b6000610d61876117ad565b90503373ffffffffffffffffffffffffffffffffffffffff168160030160009054906101000a900473ffffffffffffffffffffffffffffffffffffffff1673ffffffffffffffffffffffffffffffffffffffff1614610df5576040517f08c379a0000000000000000000000000000000000000000000000000000000008152600401610dec9061220f565b60405180910390fd5b85816001019080519060200190610e0d92919061187a565b508481600201819055507f36d67b2fbfd7858249f121d172b92ff53baea69e81802ba2c0acf7e7293c35bd81604051610e469190612371565b60405180910390a150505050505050565b6000600360009054906101000a900473ffffffffffffffffffffffffffffffffffffffff1673ffffffffffffffffffffffffffffffffffffffff163373ffffffffffffffffffffffffffffffffffffffff1614905090565b60008080600090505b600280549050811015610fbe5760028181548110610eff577f4e487b7100000000000000000000000000000000000000000000000000000000600052603260045260246000fd5b906000526020600020906005020191508160040160149054906101000a900460ff16158015610f3c57508160030160149054906101000a900460ff165b8015610f9757503373ffffffffffffffffffffffffffffffffffffffff168260040160009054906101000a900473ffffffffffffffffffffffffffffffffffffffff1673ffffffffffffffffffffffffffffffffffffffff16145b15610fab578280610fa79061272c565b9350505b8080610fb69061272c565b915050610eb8565b506001821115611003576040517f08c379a0000000000000000000000000000000000000000000000000000000008152600401610ffa9061232f565b60405180910390fd5b600061100e846117ad565b90508060030160149054906101000a900460ff1615611062576040517f08c379a0000000000000000000000000000000000000000000000000000000008152600401611059906122cf565b60405180910390fd5b3373ffffffffffffffffffffffffffffffffffffffff168160030160009054906101000a900473ffffffffffffffffffffffffffffffffffffffff1673ffffffffffffffffffffffffffffffffffffffff1614156110f5576040517f08c379a00000000000000000000000000000000000000000000000000000000081526004016110ec9061228f565b60405180910390fd5b3481600201541461113b576040517f08c379a0000000000000000000000000000000000000000000000000000000008152600401611132906122ef565b60405180910390fd5b600081600201549050600060646004546064611157919061256b565b836111629190612511565b61116c91906124e0565b90508260030160009054906101000a900473ffffffffffffffffffffffffffffffffffffffff1673ffffffffffffffffffffffffffffffffffffffff166108fc829081150290604051600060405180830381858888f193505050501580156111d8573d6000803e3d6000fd5b50338360040160006101000a81548173ffffffffffffffffffffffffffffffffffffffff021916908373ffffffffffffffffffffffffffffffffffffffff16021790555060018360030160146101000a81548160ff0219169083151502179055507f8bd7d0c83734e824c3dfee1684c55701de14f992630786becf3b4be84076219a836040516112689190612371565b60405180910390a1505050505050565b611280610e57565b6112bf576040517f08c379a00000000000000000000000000000000000000000000000000000000081526004016112b69061226f565b60405180910390fd5b60006112ca826117ad565b905060018160040160146101000a81548160ff0219169083151502179055507f9f220e877200ea7aef94e7c098510038e565aa31f8d0edd2fad7cefa0a7f1760816040516113189190612371565b60405180910390a15050565b600360009054906101000a900473ffffffffffffffffffffffffffffffffffffffff1681565b60606000805b6002805490508110156114805760028181548110611397577f4e487b7100000000000000000000000000000000000000000000000000000000600052603260045260246000fd5b906000526020600020906005020160040160149054906101000a900460ff1615801561145957503373ffffffffffffffffffffffffffffffffffffffff166002828154811061140f577f4e487b7100000000000000000000000000000000000000000000000000000000600052603260045260246000fd5b906000526020600020906005020160030160009054906101000a900473ffffffffffffffffffffffffffffffffffffffff1673ffffffffffffffffffffffffffffffffffffffff16145b1561146d5781806114699061272c565b9250505b80806114789061272c565b915050611350565b5060008167ffffffffffffffff8111156114c3577f4e487b7100000000000000000000000000000000000000000000000000000000600052604160045260246000fd5b6040519080825280602002602001820160405280156114fc57816020015b6114e9611900565b8152602001906001900390816114e15790505b509050611507611900565b6000805b6002805490508110156117a25760028181548110611552577f4e487b7100000000000000000000000000000000000000000000000000000000600052603260045260246000fd5b90600052602060002090600502016040518060e00160405290816000820154815260200160018201805461158590612692565b80601f01602080910402602001604051908101604052809291908181526020018280546115b190612692565b80156115fe5780601f106115d3576101008083540402835291602001916115fe565b820191906000526020600020905b8154815290600101906020018083116115e157829003601f168201915b50505050508152602001600282015481526020016003820160009054906101000a900473ffffffffffffffffffffffffffffffffffffffff1673ffffffffffffffffffffffffffffffffffffffff1673ffffffffffffffffffffffffffffffffffffffff1681526020016003820160149054906101000a900460ff161515151581526020016004820160009054906101000a900473ffffffffffffffffffffffffffffffffffffffff1673ffffffffffffffffffffffffffffffffffffffff1673ffffffffffffffffffffffffffffffffffffffff1681526020016004820160149054906101000a900460ff16151515158152505092508260c0015115801561173657503373ffffffffffffffffffffffffffffffffffffffff16836060015173ffffffffffffffffffffffffffffffffffffffff16145b1561178f5782848381518110611775577f4e487b7100000000000000000000000000000000000000000000000000000000600052603260045260246000fd5b6020026020010181905250818061178b9061272c565b9250505b808061179a9061272c565b91505061150b565b508294505050505090565b6000816000805482101580156117d457506002805490506000546117d1919061248a565b82105b905080611816576040517f08c379a000000000000000000000000000000000000000000000000000000000815260040161180d9061224f565b60405180910390fd5b6000600260005486611828919061256b565b8154811061185f577f4e487b7100000000000000000000000000000000000000000000000000000000600052603260045260246000fd5b90600052602060002090600502019050809350505050919050565b82805461188690612692565b90600052602060002090601f0160209004810192826118a857600085556118ef565b82601f106118c157805160ff19168380011785556118ef565b828001600101855582156118ef579182015b828111156118ee5782518255916020019190600101906118d3565b5b5090506118fc919061196d565b5090565b6040518060e00160405280600081526020016060815260200160008152602001600073ffffffffffffffffffffffffffffffffffffffff168152602001600015158152602001600073ffffffffffffffffffffffffffffffffffffffff1681526020016000151581525090565b5b8082111561198657600081600090555060010161196e565b5090565b600061199d611998846123df565b6123ae565b9050828152602081018484840111156119b557600080fd5b6119c0848285612650565b509392505050565b600082601f8301126119d957600080fd5b81356119e984826020860161198a565b91505092915050565b600081359050611a018161285c565b92915050565b60008060408385031215611a1a57600080fd5b600083013567ffffffffffffffff811115611a3457600080fd5b611a40858286016119c8565b9250506020611a51858286016119f2565b9150509250929050565b600060208284031215611a6d57600080fd5b6000611a7b848285016119f2565b91505092915050565b600080600060608486031215611a9957600080fd5b6000611aa7868287016119f2565b935050602084013567ffffffffffffffff811115611ac457600080fd5b611ad0868287016119c8565b9250506040611ae1868287016119f2565b9150509250925092565b6000611af78383611f90565b905092915050565b611b0881612608565b82525050565b611b17816125f6565b82525050565b611b26816125f6565b82525050565b6000611b3782612434565b611b418185612457565b935083602082028501611b538561240f565b8060005b85811015611b8f5784840389528151611b708582611aeb565b9450611b7b8361244a565b925060208a01995050600181019050611b57565b50829750879550505050505092915050565b611baa8161261a565b82525050565b611bb98161261a565b82525050565b6000611bca8261243f565b611bd48185612468565b9350611be481856020860161265f565b611bed81612831565b840191505092915050565b60008154611c0581612692565b611c0f8186612468565b94506001821660008114611c2a5760018114611c3c57611c6f565b60ff1983168652602086019350611c6f565b611c458561241f565b60005b83811015611c6757815481890152600182019150602081019050611c48565b808801955050505b50505092915050565b6000611c85602583612479565b91507f4f4e4c59204f574e4552204f4620412050524f445543542043414e205550444160008301527f54452049540000000000000000000000000000000000000000000000000000006020830152604082019050919050565b6000611ceb601d83612479565b91507f454d505459204445534352495054494f4e204e4f5420414c4c4f5745440000006000830152602082019050919050565b6000611d2b601183612479565b91507f56414c49442049442045585045435445440000000000000000000000000000006000830152602082019050919050565b6000611d6b601683612479565b91507f4f4e4c592041444d494e2043414e20444f2054484953000000000000000000006000830152602082019050919050565b6000611dab602083612479565b91507f4f574e4552204f4620412050524f445543542043414e4e4f54204255592049546000830152602082019050919050565b6000611deb603183612479565b91507f4d4158494d554d2050524f445543545320414c4c4f5745442046524f4d20454160008301527f434820414444524553532049532054574f0000000000000000000000000000006020830152604082019050919050565b6000611e51601983612479565b91507f43414e4e4f5420425559204120534f4c442050524f44554354000000000000006000830152602082019050919050565b6000611e91601d83612479565b91507f494e56414c49442050524943452056414c5545205350454349464945440000006000830152602082019050919050565b6000611ed1602483612479565b91507f50524943452043414e204245204245545745454e203120414e4420313020455460008301527f48455253000000000000000000000000000000000000000000000000000000006020830152604082019050919050565b6000611f37602783612479565b91507f4d4158494d554d20425559494e472046524f4d2045414348204144445245535360008301527f2049532054574f000000000000000000000000000000000000000000000000006020830152604082019050919050565b600060e083016000830151611fa86000860182612199565b5060208301518482036020860152611fc08282611bbf565b9150506040830151611fd56040860182612199565b506060830151611fe86060860182611aff565b506080830151611ffb6080860182611ba1565b5060a083015161200e60a0860182611b0e565b5060c083015161202160c0860182611ba1565b508091505092915050565b600060e0830160008301516120446000860182612199565b506020830151848203602086015261205c8282611bbf565b91505060408301516120716040860182612199565b5060608301516120846060860182611aff565b5060808301516120976080860182611ba1565b5060a08301516120aa60a0860182611b0e565b5060c08301516120bd60c0860182611ba1565b508091505092915050565b600060e0830160008084015490506120df816126f8565b6120ec6000870182612199565b506001840185830360208701526121038382611bf8565b92505060028401549050612116816126f8565b6121236040870182612199565b5060038401549050612134816126de565b6121416060870182611aff565b5061214b81612712565b6121586080870182611ba1565b5060048401549050612169816126c4565b61217660a0870182611b0e565b5061218081612712565b61218d60c0870182611ba1565b50819250505092915050565b6121a281612646565b82525050565b6121b181612646565b82525050565b60006020820190506121cc6000830184611b1d565b92915050565b600060208201905081810360008301526121ec8184611b2c565b905092915050565b60006020820190506122096000830184611bb0565b92915050565b6000602082019050818103600083015261222881611c78565b9050919050565b6000602082019050818103600083015261224881611cde565b9050919050565b6000602082019050818103600083015261226881611d1e565b9050919050565b6000602082019050818103600083015261228881611d5e565b9050919050565b600060208201905081810360008301526122a881611d9e565b9050919050565b600060208201905081810360008301526122c881611dde565b9050919050565b600060208201905081810360008301526122e881611e44565b9050919050565b6000602082019050818103600083015261230881611e84565b9050919050565b6000602082019050818103600083015261232881611ec4565b9050919050565b6000602082019050818103600083015261234881611f2a565b9050919050565b60006020820190508181036000830152612369818461202c565b905092915050565b6000602082019050818103600083015261238b81846120c8565b905092915050565b60006020820190506123a860008301846121a8565b92915050565b6000604051905081810181811067ffffffffffffffff821117156123d5576123d4612802565b5b8060405250919050565b600067ffffffffffffffff8211156123fa576123f9612802565b5b601f19601f8301169050602081019050919050565b6000819050602082019050919050565b60008190508160005260206000209050919050565b600081519050919050565b600081519050919050565b6000602082019050919050565b600082825260208201905092915050565b600082825260208201905092915050565b600082825260208201905092915050565b600061249582612646565b91506124a083612646565b9250827fffffffffffffffffffffffffffffffffffffffffffffffffffffffffffffffff038211156124d5576124d4612775565b5b828201905092915050565b60006124eb82612646565b91506124f683612646565b925082612506576125056127a4565b5b828204905092915050565b600061251c82612646565b915061252783612646565b9250817fffffffffffffffffffffffffffffffffffffffffffffffffffffffffffffffff04831182151516156125605761255f612775565b5b828202905092915050565b600061257682612646565b915061258183612646565b92508282101561259457612593612775565b5b828203905092915050565b600073ffffffffffffffffffffffffffffffffffffffff82169050919050565b600073ffffffffffffffffffffffffffffffffffffffff82169050919050565b600060ff82169050919050565b6000819050919050565b600061260182612626565b9050919050565b600061261382612626565b9050919050565b60008115159050919050565b600073ffffffffffffffffffffffffffffffffffffffff82169050919050565b6000819050919050565b82818337600083830152505050565b60005b8381101561267d578082015181840152602081019050612662565b8381111561268c576000848401525b50505050565b600060028204905060018216806126aa57607f821691505b602082108114156126be576126bd6127d3565b5b50919050565b60006126d76126d283612842565b61259f565b9050919050565b60006126f16126ec83612842565b6125bf565b9050919050565b600061270b61270683612842565b6125ec565b9050919050565b60006127256127208361284f565b6125df565b9050919050565b600061273782612646565b91507fffffffffffffffffffffffffffffffffffffffffffffffffffffffffffffffff82141561276a57612769612775565b5b600182019050919050565b7f4e487b7100000000000000000000000000000000000000000000000000000000600052601160045260246000fd5b7f4e487b7100000000000000000000000000000000000000000000000000000000600052601260045260246000fd5b7f4e487b7100000000000000000000000000000000000000000000000000000000600052602260045260246000fd5b7f4e487b7100000000000000000000000000000000000000000000000000000000600052604160045260246000fd5b6000601f19601f8301169050919050565b60008160001c9050919050565b60008160a01c9050919050565b61286581612646565b811461287057600080fd5b5056fea26469706673582212206670a39ed0fcc24a8addec00ac456d4deb4f897b3831d36458c3a39e45f7eaa064736f6c63430008000033",
  "immutableReferences": {},
  "source": "// SPDX-License-Identifier: GPL-3.0\r\npragma solidity ^0.8.0;\r\n\r\ncontract DStore {\r\n\r\n    struct Product {\r\n        uint id;\r\n        string description;\r\n        uint price;\r\n        address payable owner;\r\n        bool sold;\r\n        address soldTo;\r\n        bool deleted;\r\n    }\r\n\r\n    event Added(Product product);\r\n    event Deleted(Product product);\r\n    event Sold(Product product);\r\n    event Updated(Product product);\r\n\r\n    uint startId;\r\n    uint curId;\r\n    Product[] array;\r\n    address public admin;\r\n    uint tollPercent;\r\n\r\n    constructor(uint _tollPercent,uint _startId){\r\n        startId=_startId;\r\n        curId = startId;\r\n        admin=msg.sender;\r\n        tollPercent=_tollPercent;\r\n    }\r\n\r\n    modifier expectsValidId(uint id){\r\n        \r\n        bool validId=id>=startId && id<startId+array.length;\r\n        require(validId,\"VALID ID EXPECTED\");\r\n        _;\r\n    }\r\n\r\n    modifier expectsAdmin(){\r\n        require(isAdmin(),\"ONLY ADMIN CAN DO THIS\");\r\n        _;\r\n    }\r\n\r\n    function isAdmin() public view returns (bool) {\r\n        return msg.sender==admin;\r\n    }\r\n\r\n    function getAdmin() public view returns (address) {\r\n        return admin;\r\n    }\r\n\r\n    modifier expectsValidProperties(string memory desc, uint price){\r\n        \r\n        bytes memory descBytes = bytes(desc);\r\n        require(descBytes.length>0,\"EMPTY DESCRIPTION NOT ALLOWED\");\r\n\r\n        require(price>=1 ether && price<=10 ether,\"PRICE CAN BE BETWEEN 1 AND 10 ETHERS\");\r\n        _;\r\n    }\r\n\r\n    modifier checkMaximumAddedFromAddress(){\r\n        \r\n        uint count=0;\r\n        Product storage p;\r\n        for (uint i = 0; i < array.length; i++) {\r\n            p=array[i];\r\n            if(!p.deleted && p.owner==msg.sender){\r\n                count++;\r\n            }\r\n        }\r\n        require(count<=1,\"MAXIMUM PRODUCTS ALLOWED FROM EACH ADDRESS IS TWO\");\r\n        _;\r\n    }\r\n\r\n    modifier checkMaximumBuyingFromAddress(){\r\n        \r\n        uint count=0;\r\n        Product storage p;\r\n        for (uint i = 0; i < array.length; i++) {\r\n            p=array[i];\r\n            if(!p.deleted && p.sold && p.soldTo==msg.sender){\r\n                count++;\r\n            }\r\n        }\r\n        require(count<=1,\"MAXIMUM BUYING FROM EACH ADDRESS IS TWO\");\r\n        _;\r\n    }\r\n\r\n    function getAll() public view returns (Product[] memory) {\r\n        uint effectiveCount=0;\r\n        for (uint i = 0; i < array.length; i++) {\r\n            if(!array[i].deleted){\r\n                effectiveCount++;\r\n            }\r\n        }\r\n\r\n        Product[] memory col=new Product[](effectiveCount);\r\n        Product memory p;\r\n        uint j=0;\r\n        for (uint i = 0; i < array.length; i++) {\r\n            p=array[i];\r\n            if(!p.deleted){\r\n                col[j]=p;\r\n                j++;\r\n            }\r\n        }\r\n        return col;\r\n    }\r\n    \r\n    function getMyProducts() public view returns (Product[] memory) {\r\n        \r\n        uint count=0;\r\n        for (uint i = 0; i < array.length; i++) {\r\n            if(!array[i].deleted && array[i].owner==msg.sender){\r\n                count++;\r\n            }\r\n        }\r\n\r\n        Product[] memory col=new Product[](count);\r\n        Product memory p;\r\n        uint j=0;\r\n        for (uint i = 0; i < array.length; i++) {\r\n            p=array[i];\r\n            if(!p.deleted && p.owner==msg.sender){\r\n                col[j]=p;\r\n                j++;\r\n            }\r\n        }\r\n        return col;\r\n    }\r\n\r\n    function add(string memory desc, uint price) public  \r\n        expectsValidProperties(desc, price)\r\n        checkMaximumAddedFromAddress(){\r\n\r\n        Product memory p=Product(curId, desc, price, payable(msg.sender), false,address(0),false);\r\n\r\n        array.push(p);\r\n\r\n        curId++;\r\n\r\n        emit Added(p);\r\n    }\r\n\r\n    function update(uint id, string memory desc, uint price) public  \r\n        expectsValidProperties(desc, price){\r\n\r\n        Product storage p=find(id);\r\n\r\n        require(p.owner==msg.sender,\"ONLY OWNER OF A PRODUCT CAN UPDATE IT\");\r\n\r\n        p.description=desc;\r\n        p.price=price;\r\n        \r\n        emit Updated(p);\r\n    }\r\n\r\n   function get(uint id) public view expectsValidId(id) returns(Product memory) {\r\n       \r\n       Product memory p=array[id-startId];\r\n       return p; \r\n   }\r\n\r\n   function find(uint id) private view expectsValidId(id) returns(Product storage) {\r\n       \r\n       Product storage p=array[id-startId];\r\n       return p; \r\n   }\r\n\r\n   function deleteProduct(uint id) public expectsAdmin {\r\n       Product storage p=find(id);\r\n       p.deleted=true;\r\n\r\n       emit Deleted(p);\r\n   }\r\n\r\n   function canDelete() public view returns(bool) {\r\n       return isAdmin();\r\n   }\r\n\r\n   function buy(uint id) public payable checkMaximumBuyingFromAddress() {\r\n\r\n        Product storage p=find(id);\r\n\r\n        require(!p.sold,\"CANNOT BUY A SOLD PRODUCT\");\r\n        require(p.owner!=msg.sender,\"OWNER OF A PRODUCT CANNOT BUY IT\");\r\n        require(p.price==msg.value,\"INVALID PRICE VALUE SPECIFIED\");\r\n\r\n        uint price=p.price;\r\n\r\n        uint ownerGain=price*(100-tollPercent)/100;\r\n\r\n        p.owner.transfer(ownerGain);\r\n\r\n        //not needed(& doesn't work this way); it's done automatically \r\n        //uint contractGain=price*tollPercent/100;\r\n        //payable(address(this)).transfer(contractGain);\r\n        \r\n        p.soldTo=msg.sender;\r\n        p.sold=true;\r\n\r\n        emit Sold(p);\r\n    }\r\n\r\n   function getContractBalance() public view returns(uint) {\r\n       return address(this).balance;\r\n   }\r\n}",
  "sourcePath": "D:\\_LEARN\\Blockchain\\_JALASAT\\final\\Back\\contracts\\DStore.sol",
  "compiler": {
    "name": "solc",
    "version": "0.8.0+commit.c7dfd78e.Emscripten.clang"
  },
  "schemaVersion": "3.4.2",
  "updatedAt": "2021-10-23T21:08:48.620Z",
  "networkType": "ethereum",
  "devdoc": {
    "kind": "dev",
    "methods": {},
    "version": 1
  },
  "userdoc": {
    "kind": "user",
    "methods": {},
    "version": 1
  }
}