{
  "contractName": "DStore",
  "abi": [
    {
      "inputs": [
        {
          "internalType": "uint256",
          "name": "_tollPercent",
          "type": "uint256"
        },
        {
          "internalType": "uint256",
          "name": "_startId",
          "type": "uint256"
        }
      ],
      "stateMutability": "nonpayable",
      "type": "constructor"
    },
    {
      "anonymous": false,
      "inputs": [
        {
          "components": [
            {
              "internalType": "uint256",
              "name": "id",
              "type": "uint256"
            },
            {
              "internalType": "string",
              "name": "description",
              "type": "string"
            },
            {
              "internalType": "uint256",
              "name": "price",
              "type": "uint256"
            },
            {
              "internalType": "address payable",
              "name": "owner",
              "type": "address"
            },
            {
              "internalType": "bool",
              "name": "sold",
              "type": "bool"
            },
            {
              "internalType": "address",
              "name": "soldTo",
              "type": "address"
            },
            {
              "internalType": "bool",
              "name": "deleted",
              "type": "bool"
            }
          ],
          "indexed": false,
          "internalType": "struct DStore.Product",
          "name": "product",
          "type": "tuple"
        }
      ],
      "name": "Added",
      "type": "event"
    },
    {
      "anonymous": false,
      "inputs": [
        {
          "components": [
            {
              "internalType": "uint256",
              "name": "id",
              "type": "uint256"
            },
            {
              "internalType": "string",
              "name": "description",
              "type": "string"
            },
            {
              "internalType": "uint256",
              "name": "price",
              "type": "uint256"
            },
            {
              "internalType": "address payable",
              "name": "owner",
              "type": "address"
            },
            {
              "internalType": "bool",
              "name": "sold",
              "type": "bool"
            },
            {
              "internalType": "address",
              "name": "soldTo",
              "type": "address"
            },
            {
              "internalType": "bool",
              "name": "deleted",
              "type": "bool"
            }
          ],
          "indexed": false,
          "internalType": "struct DStore.Product",
          "name": "product",
          "type": "tuple"
        }
      ],
      "name": "Deleted",
      "type": "event"
    },
    {
      "anonymous": false,
      "inputs": [
        {
          "components": [
            {
              "internalType": "uint256",
              "name": "id",
              "type": "uint256"
            },
            {
              "internalType": "string",
              "name": "description",
              "type": "string"
            },
            {
              "internalType": "uint256",
              "name": "price",
              "type": "uint256"
            },
            {
              "internalType": "address payable",
              "name": "owner",
              "type": "address"
            },
            {
              "internalType": "bool",
              "name": "sold",
              "type": "bool"
            },
            {
              "internalType": "address",
              "name": "soldTo",
              "type": "address"
            },
            {
              "internalType": "bool",
              "name": "deleted",
              "type": "bool"
            }
          ],
          "indexed": false,
          "internalType": "struct DStore.Product",
          "name": "product",
          "type": "tuple"
        }
      ],
      "name": "Edited",
      "type": "event"
    },
    {
      "anonymous": false,
      "inputs": [
        {
          "components": [
            {
              "internalType": "uint256",
              "name": "id",
              "type": "uint256"
            },
            {
              "internalType": "string",
              "name": "description",
              "type": "string"
            },
            {
              "internalType": "uint256",
              "name": "price",
              "type": "uint256"
            },
            {
              "internalType": "address payable",
              "name": "owner",
              "type": "address"
            },
            {
              "internalType": "bool",
              "name": "sold",
              "type": "bool"
            },
            {
              "internalType": "address",
              "name": "soldTo",
              "type": "address"
            },
            {
              "internalType": "bool",
              "name": "deleted",
              "type": "bool"
            }
          ],
          "indexed": false,
          "internalType": "struct DStore.Product",
          "name": "product",
          "type": "tuple"
        }
      ],
      "name": "Sold",
      "type": "event"
    },
    {
      "inputs": [],
      "name": "admin",
      "outputs": [
        {
          "internalType": "address",
          "name": "",
          "type": "address"
        }
      ],
      "stateMutability": "view",
      "type": "function",
      "constant": true
    },
    {
      "inputs": [],
      "name": "getAll",
      "outputs": [
        {
          "components": [
            {
              "internalType": "uint256",
              "name": "id",
              "type": "uint256"
            },
            {
              "internalType": "string",
              "name": "description",
              "type": "string"
            },
            {
              "internalType": "uint256",
              "name": "price",
              "type": "uint256"
            },
            {
              "internalType": "address payable",
              "name": "owner",
              "type": "address"
            },
            {
              "internalType": "bool",
              "name": "sold",
              "type": "bool"
            },
            {
              "internalType": "address",
              "name": "soldTo",
              "type": "address"
            },
            {
              "internalType": "bool",
              "name": "deleted",
              "type": "bool"
            }
          ],
          "internalType": "struct DStore.Product[]",
          "name": "",
          "type": "tuple[]"
        }
      ],
      "stateMutability": "view",
      "type": "function",
      "constant": true
    },
    {
      "inputs": [
        {
          "internalType": "string",
          "name": "desc",
          "type": "string"
        },
        {
          "internalType": "uint256",
          "name": "price",
          "type": "uint256"
        }
      ],
      "name": "add",
      "outputs": [],
      "stateMutability": "nonpayable",
      "type": "function"
    },
    {
      "inputs": [
        {
          "internalType": "uint256",
          "name": "id",
          "type": "uint256"
        },
        {
          "internalType": "string",
          "name": "desc",
          "type": "string"
        },
        {
          "internalType": "uint256",
          "name": "price",
          "type": "uint256"
        }
      ],
      "name": "edit",
      "outputs": [],
      "stateMutability": "nonpayable",
      "type": "function"
    },
    {
      "inputs": [
        {
          "internalType": "uint256",
          "name": "id",
          "type": "uint256"
        }
      ],
      "name": "deleteProduct",
      "outputs": [],
      "stateMutability": "nonpayable",
      "type": "function"
    },
    {
      "inputs": [
        {
          "internalType": "uint256",
          "name": "id",
          "type": "uint256"
        }
      ],
      "name": "buy",
      "outputs": [],
      "stateMutability": "payable",
      "type": "function",
      "payable": true
    }
  ],
  "bytecode": "0x60806040523480156200001157600080fd5b50604051620020f9380380620020f98339818101604052810190620000379190620000ae565b8060008190555060005460018190555033600360006101000a81548173ffffffffffffffffffffffffffffffffffffffff021916908373ffffffffffffffffffffffffffffffffffffffff16021790555081600481905550505062000113565b600081519050620000a881620000f9565b92915050565b60008060408385031215620000c257600080fd5b6000620000d28582860162000097565b9250506020620000e58582860162000097565b9150509250929050565b6000819050919050565b6200010481620000ef565b81146200011057600080fd5b50565b611fd680620001236000396000f3fe6080604052600436106100555760003560e01c806336555b851461005a57806353ed51431461008357806369d1698f146100ae578063d96a094a146100d7578063ed90c7b7146100f3578063f851a4401461011c575b600080fd5b34801561006657600080fd5b50610081600480360381019061007c9190611188565b610147565b005b34801561008f57600080fd5b5061009861051d565b6040516100a59190611935565b60405180910390f35b3480156100ba57600080fd5b506100d560048036038101906100d09190611205565b61089f565b005b6100f160048036038101906100ec91906111dc565b610a4a565b005b3480156100ff57600080fd5b5061011a600480360381019061011591906111dc565b610e13565b005b34801561012857600080fd5b50610131610f08565b60405161013e919061191a565b60405180910390f35b818160008290506000815111610192576040517f08c379a000000000000000000000000000000000000000000000000000000000815260040161018990611977565b60405180910390fd5b670de0b6b3a764000082101580156101b25750678ac7230489e800008211155b6101f1576040517f08c379a00000000000000000000000000000000000000000000000000000000081526004016101e890611a57565b60405180910390fd5b60008080600090505b6002805490508110156102e65760028181548110610241577f4e487b7100000000000000000000000000000000000000000000000000000000600052603260045260246000fd5b906000526020600020906005020191508160040160149054906101000a900460ff161580156102bf57503373ffffffffffffffffffffffffffffffffffffffff168260030160009054906101000a900473ffffffffffffffffffffffffffffffffffffffff1673ffffffffffffffffffffffffffffffffffffffff16145b156102d35782806102cf90611e59565b9350505b80806102de90611e59565b9150506101fa565b50600182111561032b576040517f08c379a0000000000000000000000000000000000000000000000000000000008152600401610322906119f7565b60405180910390fd5b60006040518060e0016040528060015481526020018981526020018881526020013373ffffffffffffffffffffffffffffffffffffffff168152602001600015158152602001600073ffffffffffffffffffffffffffffffffffffffff16815260200160001515815250905060028190806001815401808255809150506001900390600052602060002090600502016000909190919091506000820151816000015560208201518160010190805190602001906103e9929190610ffb565b506040820151816002015560608201518160030160006101000a81548173ffffffffffffffffffffffffffffffffffffffff021916908373ffffffffffffffffffffffffffffffffffffffff16021790555060808201518160030160146101000a81548160ff02191690831515021790555060a08201518160040160006101000a81548173ffffffffffffffffffffffffffffffffffffffff021916908373ffffffffffffffffffffffffffffffffffffffff16021790555060c08201518160040160146101000a81548160ff0219169083151502179055505050600160008154809291906104d790611e59565b91905055507fd1ecc316511450ffd030c08b1e327c1f3da3f423046b88ff15a519c25e160e0a8160405161050b9190611a97565b60405180910390a15050505050505050565b60606000805b6002805490508110156105af576002818154811061056a577f4e487b7100000000000000000000000000000000000000000000000000000000600052603260045260246000fd5b906000526020600020906005020160040160149054906101000a900460ff1661059c57818061059890611e59565b9250505b80806105a790611e59565b915050610523565b5060008167ffffffffffffffff8111156105f2577f4e487b7100000000000000000000000000000000000000000000000000000000600052604160045260246000fd5b60405190808252806020026020018201604052801561062b57816020015b610618611081565b8152602001906001900390816106105790505b509050610636611081565b6000805b6002805490508110156108945760028181548110610681577f4e487b7100000000000000000000000000000000000000000000000000000000600052603260045260246000fd5b90600052602060002090600502016040518060e0016040529081600082015481526020016001820180546106b490611dbf565b80601f01602080910402602001604051908101604052809291908181526020018280546106e090611dbf565b801561072d5780601f106107025761010080835404028352916020019161072d565b820191906000526020600020905b81548152906001019060200180831161071057829003601f168201915b50505050508152602001600282015481526020016003820160009054906101000a900473ffffffffffffffffffffffffffffffffffffffff1673ffffffffffffffffffffffffffffffffffffffff1673ffffffffffffffffffffffffffffffffffffffff1681526020016003820160149054906101000a900460ff161515151581526020016004820160009054906101000a900473ffffffffffffffffffffffffffffffffffffffff1673ffffffffffffffffffffffffffffffffffffffff1673ffffffffffffffffffffffffffffffffffffffff1681526020016004820160149054906101000a900460ff16151515158152505092508260c001516108815782848381518110610867577f4e487b7100000000000000000000000000000000000000000000000000000000600052603260045260246000fd5b6020026020010181905250818061087d90611e59565b9250505b808061088c90611e59565b91505061063a565b508294505050505090565b8181600082905060008151116108ea576040517f08c379a00000000000000000000000000000000000000000000000000000000081526004016108e190611977565b60405180910390fd5b670de0b6b3a7640000821015801561090a5750678ac7230489e800008211155b610949576040517f08c379a000000000000000000000000000000000000000000000000000000000815260040161094090611a57565b60405180910390fd5b600061095487610f2e565b90503373ffffffffffffffffffffffffffffffffffffffff168160030160009054906101000a900473ffffffffffffffffffffffffffffffffffffffff1673ffffffffffffffffffffffffffffffffffffffff16146109e8576040517f08c379a00000000000000000000000000000000000000000000000000000000081526004016109df90611957565b60405180910390fd5b85816001019080519060200190610a00929190610ffb565b508481600201819055507f8839b939e19ef445b378ac3476ffb334ddedc998209f425baad19d577f6b92ea81604051610a399190611ab9565b60405180910390a150505050505050565b60008080600090505b600280549050811015610b595760028181548110610a9a577f4e487b7100000000000000000000000000000000000000000000000000000000600052603260045260246000fd5b906000526020600020906005020191508160040160149054906101000a900460ff16158015610ad757508160030160149054906101000a900460ff165b8015610b3257503373ffffffffffffffffffffffffffffffffffffffff168260040160009054906101000a900473ffffffffffffffffffffffffffffffffffffffff1673ffffffffffffffffffffffffffffffffffffffff16145b15610b46578280610b4290611e59565b9350505b8080610b5190611e59565b915050610a53565b506001821115610b9e576040517f08c379a0000000000000000000000000000000000000000000000000000000008152600401610b9590611a77565b60405180910390fd5b6000610ba984610f2e565b90508060030160149054906101000a900460ff1615610bfd576040517f08c379a0000000000000000000000000000000000000000000000000000000008152600401610bf490611a17565b60405180910390fd5b3373ffffffffffffffffffffffffffffffffffffffff168160030160009054906101000a900473ffffffffffffffffffffffffffffffffffffffff1673ffffffffffffffffffffffffffffffffffffffff161415610c90576040517f08c379a0000000000000000000000000000000000000000000000000000000008152600401610c87906119d7565b60405180910390fd5b34816002015414610cd6576040517f08c379a0000000000000000000000000000000000000000000000000000000008152600401610ccd90611a37565b60405180910390fd5b600081600201549050600060646004546064610cf29190611c98565b83610cfd9190611c3e565b610d079190611c0d565b90508260030160009054906101000a900473ffffffffffffffffffffffffffffffffffffffff1673ffffffffffffffffffffffffffffffffffffffff166108fc829081150290604051600060405180830381858888f19350505050158015610d73573d6000803e3d6000fd5b50338360040160006101000a81548173ffffffffffffffffffffffffffffffffffffffff021916908373ffffffffffffffffffffffffffffffffffffffff16021790555060018360030160146101000a81548160ff0219169083151502179055507f8bd7d0c83734e824c3dfee1684c55701de14f992630786becf3b4be84076219a83604051610e039190611ab9565b60405180910390a1505050505050565b600360009054906101000a900473ffffffffffffffffffffffffffffffffffffffff1673ffffffffffffffffffffffffffffffffffffffff163373ffffffffffffffffffffffffffffffffffffffff1614610ea3576040517f08c379a0000000000000000000000000000000000000000000000000000000008152600401610e9a906119b7565b60405180910390fd5b6000610eae82610f2e565b905060018160040160146101000a81548160ff0219169083151502179055507f9f220e877200ea7aef94e7c098510038e565aa31f8d0edd2fad7cefa0a7f176081604051610efc9190611ab9565b60405180910390a15050565b600360009054906101000a900473ffffffffffffffffffffffffffffffffffffffff1681565b600081600080548210158015610f555750600280549050600054610f529190611bb7565b82105b905080610f97576040517f08c379a0000000000000000000000000000000000000000000000000000000008152600401610f8e90611997565b60405180910390fd5b6000600260005486610fa99190611c98565b81548110610fe0577f4e487b7100000000000000000000000000000000000000000000000000000000600052603260045260246000fd5b90600052602060002090600502019050809350505050919050565b82805461100790611dbf565b90600052602060002090601f0160209004810192826110295760008555611070565b82601f1061104257805160ff1916838001178555611070565b82800160010185558215611070579182015b8281111561106f578251825591602001919060010190611054565b5b50905061107d91906110ee565b5090565b6040518060e00160405280600081526020016060815260200160008152602001600073ffffffffffffffffffffffffffffffffffffffff168152602001600015158152602001600073ffffffffffffffffffffffffffffffffffffffff1681526020016000151581525090565b5b808211156111075760008160009055506001016110ef565b5090565b600061111e61111984611b0c565b611adb565b90508281526020810184848401111561113657600080fd5b611141848285611d7d565b509392505050565b600082601f83011261115a57600080fd5b813561116a84826020860161110b565b91505092915050565b60008135905061118281611f89565b92915050565b6000806040838503121561119b57600080fd5b600083013567ffffffffffffffff8111156111b557600080fd5b6111c185828601611149565b92505060206111d285828601611173565b9150509250929050565b6000602082840312156111ee57600080fd5b60006111fc84828501611173565b91505092915050565b60008060006060848603121561121a57600080fd5b600061122886828701611173565b935050602084013567ffffffffffffffff81111561124557600080fd5b61125186828701611149565b925050604061126286828701611173565b9150509250925092565b60006112788383611702565b905092915050565b61128981611d35565b82525050565b61129881611d23565b82525050565b6112a781611d23565b82525050565b60006112b882611b61565b6112c28185611b84565b9350836020820285016112d485611b3c565b8060005b8581101561131057848403895281516112f1858261126c565b94506112fc83611b77565b925060208a019950506001810190506112d8565b50829750879550505050505092915050565b61132b81611d47565b82525050565b600061133c82611b6c565b6113468185611b95565b9350611356818560208601611d8c565b61135f81611f5e565b840191505092915050565b6000815461137781611dbf565b6113818186611b95565b9450600182166000811461139c57600181146113ae576113e1565b60ff19831686526020860193506113e1565b6113b785611b4c565b60005b838110156113d9578154818901526001820191506020810190506113ba565b808801955050505b50505092915050565b60006113f7602383611ba6565b91507f4f4e4c59204f574e4552204f4620412050524f445543542043414e204544495460008301527f20495400000000000000000000000000000000000000000000000000000000006020830152604082019050919050565b600061145d601d83611ba6565b91507f454d505459204445534352495054494f4e204e4f5420414c4c4f5745440000006000830152602082019050919050565b600061149d601183611ba6565b91507f56414c49442049442045585045435445440000000000000000000000000000006000830152602082019050919050565b60006114dd601683611ba6565b91507f4f4e4c592041444d494e2043414e20444f2054484953000000000000000000006000830152602082019050919050565b600061151d602083611ba6565b91507f4f574e4552204f4620412050524f445543542043414e4e4f54204255592049546000830152602082019050919050565b600061155d603183611ba6565b91507f4d4158494d554d2050524f445543545320414c4c4f5745442046524f4d20454160008301527f434820414444524553532049532054574f0000000000000000000000000000006020830152604082019050919050565b60006115c3601983611ba6565b91507f43414e4e4f5420425559204120534f4c442050524f44554354000000000000006000830152602082019050919050565b6000611603601d83611ba6565b91507f494e56414c49442050524943452056414c5545205350454349464945440000006000830152602082019050919050565b6000611643602483611ba6565b91507f50524943452043414e204245204245545745454e203120414e4420313020455460008301527f48455253000000000000000000000000000000000000000000000000000000006020830152604082019050919050565b60006116a9602783611ba6565b91507f4d4158494d554d20425559494e472046524f4d2045414348204144445245535360008301527f2049532054574f000000000000000000000000000000000000000000000000006020830152604082019050919050565b600060e08301600083015161171a600086018261190b565b50602083015184820360208601526117328282611331565b9150506040830151611747604086018261190b565b50606083015161175a6060860182611280565b50608083015161176d6080860182611322565b5060a083015161178060a086018261128f565b5060c083015161179360c0860182611322565b508091505092915050565b600060e0830160008301516117b6600086018261190b565b50602083015184820360208601526117ce8282611331565b91505060408301516117e3604086018261190b565b5060608301516117f66060860182611280565b5060808301516118096080860182611322565b5060a083015161181c60a086018261128f565b5060c083015161182f60c0860182611322565b508091505092915050565b600060e08301600080840154905061185181611e25565b61185e600087018261190b565b50600184018583036020870152611875838261136a565b9250506002840154905061188881611e25565b611895604087018261190b565b50600384015490506118a681611e0b565b6118b36060870182611280565b506118bd81611e3f565b6118ca6080870182611322565b50600484015490506118db81611df1565b6118e860a087018261128f565b506118f281611e3f565b6118ff60c0870182611322565b50819250505092915050565b61191481611d73565b82525050565b600060208201905061192f600083018461129e565b92915050565b6000602082019050818103600083015261194f81846112ad565b905092915050565b60006020820190508181036000830152611970816113ea565b9050919050565b6000602082019050818103600083015261199081611450565b9050919050565b600060208201905081810360008301526119b081611490565b9050919050565b600060208201905081810360008301526119d0816114d0565b9050919050565b600060208201905081810360008301526119f081611510565b9050919050565b60006020820190508181036000830152611a1081611550565b9050919050565b60006020820190508181036000830152611a30816115b6565b9050919050565b60006020820190508181036000830152611a50816115f6565b9050919050565b60006020820190508181036000830152611a7081611636565b9050919050565b60006020820190508181036000830152611a908161169c565b9050919050565b60006020820190508181036000830152611ab1818461179e565b905092915050565b60006020820190508181036000830152611ad3818461183a565b905092915050565b6000604051905081810181811067ffffffffffffffff82111715611b0257611b01611f2f565b5b8060405250919050565b600067ffffffffffffffff821115611b2757611b26611f2f565b5b601f19601f8301169050602081019050919050565b6000819050602082019050919050565b60008190508160005260206000209050919050565b600081519050919050565b600081519050919050565b6000602082019050919050565b600082825260208201905092915050565b600082825260208201905092915050565b600082825260208201905092915050565b6000611bc282611d73565b9150611bcd83611d73565b9250827fffffffffffffffffffffffffffffffffffffffffffffffffffffffffffffffff03821115611c0257611c01611ea2565b5b828201905092915050565b6000611c1882611d73565b9150611c2383611d73565b925082611c3357611c32611ed1565b5b828204905092915050565b6000611c4982611d73565b9150611c5483611d73565b9250817fffffffffffffffffffffffffffffffffffffffffffffffffffffffffffffffff0483118215151615611c8d57611c8c611ea2565b5b828202905092915050565b6000611ca382611d73565b9150611cae83611d73565b925082821015611cc157611cc0611ea2565b5b828203905092915050565b600073ffffffffffffffffffffffffffffffffffffffff82169050919050565b600073ffffffffffffffffffffffffffffffffffffffff82169050919050565b600060ff82169050919050565b6000819050919050565b6000611d2e82611d53565b9050919050565b6000611d4082611d53565b9050919050565b60008115159050919050565b600073ffffffffffffffffffffffffffffffffffffffff82169050919050565b6000819050919050565b82818337600083830152505050565b60005b83811015611daa578082015181840152602081019050611d8f565b83811115611db9576000848401525b50505050565b60006002820490506001821680611dd757607f821691505b60208210811415611deb57611dea611f00565b5b50919050565b6000611e04611dff83611f6f565b611ccc565b9050919050565b6000611e1e611e1983611f6f565b611cec565b9050919050565b6000611e38611e3383611f6f565b611d19565b9050919050565b6000611e52611e4d83611f7c565b611d0c565b9050919050565b6000611e6482611d73565b91507fffffffffffffffffffffffffffffffffffffffffffffffffffffffffffffffff821415611e9757611e96611ea2565b5b600182019050919050565b7f4e487b7100000000000000000000000000000000000000000000000000000000600052601160045260246000fd5b7f4e487b7100000000000000000000000000000000000000000000000000000000600052601260045260246000fd5b7f4e487b7100000000000000000000000000000000000000000000000000000000600052602260045260246000fd5b7f4e487b7100000000000000000000000000000000000000000000000000000000600052604160045260246000fd5b6000601f19601f8301169050919050565b60008160001c9050919050565b60008160a01c9050919050565b611f9281611d73565b8114611f9d57600080fd5b5056fea264697066735822122031c7c96d30588ab6e742410eeb8de7ce16356c33fd4f4a2d4883eb677786cfd864736f6c63430008000033",
  "immutableReferences": {},
  "source": "// SPDX-License-Identifier: GPL-3.0\r\npragma solidity ^0.8.0;\r\n\r\ncontract DStore {\r\n\r\n    struct Product {\r\n        uint id;\r\n        string description;\r\n        uint price;\r\n        address payable owner;\r\n        bool sold;\r\n        address soldTo;\r\n        bool deleted;\r\n    }\r\n\r\n    event Added(Product product);\r\n    event Deleted(Product product);\r\n    event Sold(Product product);\r\n    event Edited(Product product);\r\n\r\n    uint startId;\r\n    uint curId;\r\n    Product[] array;\r\n    address public admin;\r\n    uint tollPercent;\r\n\r\n    constructor(uint _tollPercent,uint _startId){\r\n        startId=_startId;\r\n        curId = startId;\r\n        admin=msg.sender;\r\n        tollPercent=_tollPercent;\r\n    }\r\n\r\n    modifier expectsValidId(uint id){\r\n        \r\n        bool validId=id>=startId && id<startId+array.length;\r\n        require(validId,\"VALID ID EXPECTED\");\r\n        _;\r\n    }\r\n\r\n    modifier expectsAdmin(){\r\n        require(msg.sender==admin,\"ONLY ADMIN CAN DO THIS\");\r\n        _;\r\n    }\r\n\r\n    modifier expectsValidProperties(string memory desc, uint price){\r\n        \r\n        bytes memory descBytes = bytes(desc);\r\n        require(descBytes.length>0,\"EMPTY DESCRIPTION NOT ALLOWED\");\r\n\r\n        require(price>=1 ether && price<=10 ether,\"PRICE CAN BE BETWEEN 1 AND 10 ETHERS\");\r\n        _;\r\n    }\r\n\r\n    modifier checkMaximumAddedFromAddress(){\r\n        \r\n        uint count=0;\r\n        Product storage p;\r\n        for (uint i = 0; i < array.length; i++) {\r\n            p=array[i];\r\n            if(!p.deleted && p.owner==msg.sender){\r\n                count++;\r\n            }\r\n        }\r\n        require(count<=1,\"MAXIMUM PRODUCTS ALLOWED FROM EACH ADDRESS IS TWO\");\r\n        _;\r\n    }\r\n\r\n    modifier checkMaximumBuyingFromAddress(){\r\n        \r\n        uint count=0;\r\n        Product storage p;\r\n        for (uint i = 0; i < array.length; i++) {\r\n            p=array[i];\r\n            if(!p.deleted && p.sold && p.soldTo==msg.sender){\r\n                count++;\r\n            }\r\n        }\r\n        require(count<=1,\"MAXIMUM BUYING FROM EACH ADDRESS IS TWO\");\r\n        _;\r\n    }\r\n\r\n    function getAll() public view returns (Product[] memory) {\r\n        uint actualCount=0;\r\n        for (uint i = 0; i < array.length; i++) {\r\n            if(!array[i].deleted){\r\n                actualCount++;\r\n            }\r\n        }\r\n\r\n        Product[] memory col=new Product[](actualCount);\r\n        Product memory p;\r\n        uint j=0;\r\n        for (uint i = 0; i < array.length; i++) {\r\n            p=array[i];\r\n            if(!p.deleted){\r\n                col[j]=p;\r\n                j++;\r\n            }\r\n        }\r\n        return col;\r\n    }\r\n    \r\n    function add(string memory desc, uint price) public  \r\n        expectsValidProperties(desc, price)\r\n        checkMaximumAddedFromAddress(){\r\n\r\n        Product memory p=Product(curId, desc, price, payable(msg.sender), false,address(0),false);\r\n\r\n        array.push(p);\r\n\r\n        curId++;\r\n\r\n        emit Added(p);\r\n    }\r\n\r\n    function edit(uint id, string memory desc, uint price) public  \r\n        expectsValidProperties(desc, price){\r\n\r\n        Product storage p=getProduct(id);\r\n\r\n        require(p.owner==msg.sender,\"ONLY OWNER OF A PRODUCT CAN EDIT IT\");\r\n\r\n        p.description=desc;\r\n        p.price=price;\r\n        \r\n        emit Edited(p);\r\n    }\r\n\r\n   function getProduct(uint id) private view expectsValidId(id) returns(Product storage) {\r\n       \r\n       Product storage p=array[id-startId];\r\n       return p; \r\n   }\r\n\r\n   function deleteProduct(uint id) public expectsAdmin {\r\n       Product storage p=getProduct(id);\r\n       p.deleted=true;\r\n\r\n       emit Deleted(p);\r\n   }\r\n\r\n   function buy(uint id) public payable checkMaximumBuyingFromAddress() {\r\n\r\n        Product storage p=getProduct(id);\r\n\r\n        require(!p.sold,\"CANNOT BUY A SOLD PRODUCT\");\r\n        require(p.owner!=msg.sender,\"OWNER OF A PRODUCT CANNOT BUY IT\");\r\n        require(p.price==msg.value,\"INVALID PRICE VALUE SPECIFIED\");\r\n\r\n        uint price=p.price;\r\n\r\n        uint ownerGain=price*(100-tollPercent)/100;\r\n\r\n        p.owner.transfer(ownerGain);\r\n\r\n        //not needed(& doesn't work this way); it's done automatically \r\n        //uint contractGain=price*tollPercent/100;\r\n        //payable(address(this)).transfer(contractGain);\r\n        \r\n        p.soldTo=msg.sender;\r\n        p.sold=true;\r\n\r\n        emit Sold(p);\r\n    }\r\n}",
  "sourcePath": "D:\\_LEARN\\Blockchain\\_JALASAT\\final\\Back\\contracts\\DStore.sol",
  "compiler": {
    "name": "solc",
    "version": "0.8.0+commit.c7dfd78e.Emscripten.clang"
  },
  "schemaVersion": "3.4.2",
  "updatedAt": "2021-10-20T16:17:39.697Z",
  "networkType": "ethereum",
  "devdoc": {
    "kind": "dev",
    "methods": {},
    "version": 1
  },
  "userdoc": {
    "kind": "user",
    "methods": {},
    "version": 1
  }
}