{
  "contractName": "DStore",
  "abi": [
    {
      "inputs": [
        {
          "internalType": "uint256",
          "name": "_startId",
          "type": "uint256"
        }
      ],
      "stateMutability": "nonpayable",
      "type": "constructor"
    },
    {
      "anonymous": false,
      "inputs": [
        {
          "components": [
            {
              "internalType": "uint256",
              "name": "id",
              "type": "uint256"
            },
            {
              "internalType": "string",
              "name": "description",
              "type": "string"
            },
            {
              "internalType": "uint256",
              "name": "price",
              "type": "uint256"
            },
            {
              "internalType": "address",
              "name": "owner",
              "type": "address"
            },
            {
              "internalType": "bool",
              "name": "available",
              "type": "bool"
            },
            {
              "internalType": "address",
              "name": "soldTo",
              "type": "address"
            },
            {
              "internalType": "bool",
              "name": "deleted",
              "type": "bool"
            }
          ],
          "indexed": false,
          "internalType": "struct DStore.Product",
          "name": "product",
          "type": "tuple"
        }
      ],
      "name": "Added",
      "type": "event"
    },
    {
      "anonymous": false,
      "inputs": [
        {
          "components": [
            {
              "internalType": "uint256",
              "name": "id",
              "type": "uint256"
            },
            {
              "internalType": "string",
              "name": "description",
              "type": "string"
            },
            {
              "internalType": "uint256",
              "name": "price",
              "type": "uint256"
            },
            {
              "internalType": "address",
              "name": "owner",
              "type": "address"
            },
            {
              "internalType": "bool",
              "name": "available",
              "type": "bool"
            },
            {
              "internalType": "address",
              "name": "soldTo",
              "type": "address"
            },
            {
              "internalType": "bool",
              "name": "deleted",
              "type": "bool"
            }
          ],
          "indexed": false,
          "internalType": "struct DStore.Product",
          "name": "product",
          "type": "tuple"
        }
      ],
      "name": "Deleted",
      "type": "event"
    },
    {
      "anonymous": false,
      "inputs": [
        {
          "indexed": false,
          "internalType": "uint256",
          "name": "id",
          "type": "uint256"
        },
        {
          "indexed": false,
          "internalType": "address",
          "name": "buyer",
          "type": "address"
        }
      ],
      "name": "Sold",
      "type": "event"
    },
    {
      "inputs": [],
      "name": "admin",
      "outputs": [
        {
          "internalType": "address",
          "name": "",
          "type": "address"
        }
      ],
      "stateMutability": "view",
      "type": "function"
    },
    {
      "inputs": [],
      "name": "getAll",
      "outputs": [
        {
          "components": [
            {
              "internalType": "uint256",
              "name": "id",
              "type": "uint256"
            },
            {
              "internalType": "string",
              "name": "description",
              "type": "string"
            },
            {
              "internalType": "uint256",
              "name": "price",
              "type": "uint256"
            },
            {
              "internalType": "address",
              "name": "owner",
              "type": "address"
            },
            {
              "internalType": "bool",
              "name": "available",
              "type": "bool"
            },
            {
              "internalType": "address",
              "name": "soldTo",
              "type": "address"
            },
            {
              "internalType": "bool",
              "name": "deleted",
              "type": "bool"
            }
          ],
          "internalType": "struct DStore.Product[]",
          "name": "",
          "type": "tuple[]"
        }
      ],
      "stateMutability": "view",
      "type": "function"
    },
    {
      "inputs": [
        {
          "internalType": "string",
          "name": "desc",
          "type": "string"
        },
        {
          "internalType": "uint256",
          "name": "price",
          "type": "uint256"
        }
      ],
      "name": "add",
      "outputs": [],
      "stateMutability": "nonpayable",
      "type": "function"
    },
    {
      "inputs": [
        {
          "internalType": "uint256",
          "name": "id",
          "type": "uint256"
        }
      ],
      "name": "deleteProduct",
      "outputs": [],
      "stateMutability": "nonpayable",
      "type": "function"
    }
  ],
  "bytecode": "0x608060405234801561001057600080fd5b50604051620013a9380380620013a9833981810160405281019061003491906100a0565b8060008190555060005460018190555033600360006101000a81548173ffffffffffffffffffffffffffffffffffffffff021916908373ffffffffffffffffffffffffffffffffffffffff160217905550506100ea565b60008151905061009a816100d3565b92915050565b6000602082840312156100b257600080fd5b60006100c08482850161008b565b91505092915050565b6000819050919050565b6100dc816100c9565b81146100e757600080fd5b50565b6112af80620000fa6000396000f3fe608060405234801561001057600080fd5b506004361061004c5760003560e01c806336555b851461005157806353ed51431461006d578063ed90c7b71461008b578063f851a440146100a7575b600080fd5b61006b60048036038101906100669190610b16565b6100c5565b005b61007561035f565b6040516100829190610eca565b60405180910390f35b6100a560048036038101906100a09190610b6a565b6106e1565b005b6100af610896565b6040516100bc9190610eaf565b60405180910390f35b818160008290506000815111610110576040517f08c379a000000000000000000000000000000000000000000000000000000000815260040161010790610eec565b60405180910390fd5b670de0b6b3a764000082101580156101305750678ac7230489e800008211155b61016f576040517f08c379a000000000000000000000000000000000000000000000000000000000815260040161016690610f2c565b60405180910390fd5b60006040518060e0016040528060015481526020018781526020018681526020013373ffffffffffffffffffffffffffffffffffffffff168152602001600115158152602001600073ffffffffffffffffffffffffffffffffffffffff168152602001600015158152509050600281908060018154018082558091505060019003906000526020600020906005020160009091909190915060008201518160000155602082015181600101908051906020019061022d929190610989565b506040820151816002015560608201518160030160006101000a81548173ffffffffffffffffffffffffffffffffffffffff021916908373ffffffffffffffffffffffffffffffffffffffff16021790555060808201518160030160146101000a81548160ff02191690831515021790555060a08201518160040160006101000a81548173ffffffffffffffffffffffffffffffffffffffff021916908373ffffffffffffffffffffffffffffffffffffffff16021790555060c08201518160040160146101000a81548160ff02191690831515021790555050506001600081548092919061031b9061117b565b91905055507fd1ecc316511450ffd030c08b1e327c1f3da3f423046b88ff15a519c25e160e0a8160405161034f9190610f4c565b60405180910390a1505050505050565b60606000805b6002805490508110156103f157600281815481106103ac577f4e487b7100000000000000000000000000000000000000000000000000000000600052603260045260246000fd5b906000526020600020906005020160040160149054906101000a900460ff166103de5781806103da9061117b565b9250505b80806103e99061117b565b915050610365565b5060008167ffffffffffffffff811115610434577f4e487b7100000000000000000000000000000000000000000000000000000000600052604160045260246000fd5b60405190808252806020026020018201604052801561046d57816020015b61045a610a0f565b8152602001906001900390816104525790505b509050610478610a0f565b6000805b6002805490508110156106d657600281815481106104c3577f4e487b7100000000000000000000000000000000000000000000000000000000600052603260045260246000fd5b90600052602060002090600502016040518060e0016040529081600082015481526020016001820180546104f690611149565b80601f016020809104026020016040519081016040528092919081815260200182805461052290611149565b801561056f5780601f106105445761010080835404028352916020019161056f565b820191906000526020600020905b81548152906001019060200180831161055257829003601f168201915b50505050508152602001600282015481526020016003820160009054906101000a900473ffffffffffffffffffffffffffffffffffffffff1673ffffffffffffffffffffffffffffffffffffffff1673ffffffffffffffffffffffffffffffffffffffff1681526020016003820160149054906101000a900460ff161515151581526020016004820160009054906101000a900473ffffffffffffffffffffffffffffffffffffffff1673ffffffffffffffffffffffffffffffffffffffff1673ffffffffffffffffffffffffffffffffffffffff1681526020016004820160149054906101000a900460ff16151515158152505092508260c001516106c357828483815181106106a9577f4e487b7100000000000000000000000000000000000000000000000000000000600052603260045260246000fd5b602002602001018190525081806106bf9061117b565b9250505b80806106ce9061117b565b91505061047c565b508294505050505090565b60006106ec826108bc565b6040518060e00160405290816000820154815260200160018201805461071190611149565b80601f016020809104026020016040519081016040528092919081815260200182805461073d90611149565b801561078a5780601f1061075f5761010080835404028352916020019161078a565b820191906000526020600020905b81548152906001019060200180831161076d57829003601f168201915b50505050508152602001600282015481526020016003820160009054906101000a900473ffffffffffffffffffffffffffffffffffffffff1673ffffffffffffffffffffffffffffffffffffffff1673ffffffffffffffffffffffffffffffffffffffff1681526020016003820160149054906101000a900460ff161515151581526020016004820160009054906101000a900473ffffffffffffffffffffffffffffffffffffffff1673ffffffffffffffffffffffffffffffffffffffff1673ffffffffffffffffffffffffffffffffffffffff1681526020016004820160149054906101000a900460ff161515151581525050905060018160c00190151590811515815250505050565b600360009054906101000a900473ffffffffffffffffffffffffffffffffffffffff1681565b6000816000805482101580156108e357506002805490506000546108e09190611035565b82105b905080610925576040517f08c379a000000000000000000000000000000000000000000000000000000000815260040161091c90610f0c565b60405180910390fd5b6000600260005486610937919061108b565b8154811061096e577f4e487b7100000000000000000000000000000000000000000000000000000000600052603260045260246000fd5b90600052602060002090600502019050809350505050919050565b82805461099590611149565b90600052602060002090601f0160209004810192826109b757600085556109fe565b82601f106109d057805160ff19168380011785556109fe565b828001600101855582156109fe579182015b828111156109fd5782518255916020019190600101906109e2565b5b509050610a0b9190610a7c565b5090565b6040518060e00160405280600081526020016060815260200160008152602001600073ffffffffffffffffffffffffffffffffffffffff168152602001600015158152602001600073ffffffffffffffffffffffffffffffffffffffff1681526020016000151581525090565b5b80821115610a95576000816000905550600101610a7d565b5090565b6000610aac610aa784610f9f565b610f6e565b905082815260208101848484011115610ac457600080fd5b610acf848285611107565b509392505050565b600082601f830112610ae857600080fd5b8135610af8848260208601610a99565b91505092915050565b600081359050610b1081611262565b92915050565b60008060408385031215610b2957600080fd5b600083013567ffffffffffffffff811115610b4357600080fd5b610b4f85828601610ad7565b9250506020610b6085828601610b01565b9150509250929050565b600060208284031215610b7c57600080fd5b6000610b8a84828501610b01565b91505092915050565b6000610b9f8383610d68565b905092915050565b610bb0816110bf565b82525050565b610bbf816110bf565b82525050565b6000610bd082610fdf565b610bda8185611002565b935083602082028501610bec85610fcf565b8060005b85811015610c285784840389528151610c098582610b93565b9450610c1483610ff5565b925060208a01995050600181019050610bf0565b50829750879550505050505092915050565b610c43816110d1565b82525050565b6000610c5482610fea565b610c5e8185611013565b9350610c6e818560208601611116565b610c7781611251565b840191505092915050565b6000610c8f601d83611024565b91507f454d505459204445534352495054494f4e204e4f5420414c4c4f5745440000006000830152602082019050919050565b6000610ccf601183611024565b91507f56414c49442049442045585045435445440000000000000000000000000000006000830152602082019050919050565b6000610d0f602483611024565b91507f50524943452043414e204245204245545745454e203120414e4420313020455460008301527f48455253000000000000000000000000000000000000000000000000000000006020830152604082019050919050565b600060e083016000830151610d806000860182610ea0565b5060208301518482036020860152610d988282610c49565b9150506040830151610dad6040860182610ea0565b506060830151610dc06060860182610ba7565b506080830151610dd36080860182610c3a565b5060a0830151610de660a0860182610ba7565b5060c0830151610df960c0860182610c3a565b508091505092915050565b600060e083016000830151610e1c6000860182610ea0565b5060208301518482036020860152610e348282610c49565b9150506040830151610e496040860182610ea0565b506060830151610e5c6060860182610ba7565b506080830151610e6f6080860182610c3a565b5060a0830151610e8260a0860182610ba7565b5060c0830151610e9560c0860182610c3a565b508091505092915050565b610ea9816110fd565b82525050565b6000602082019050610ec46000830184610bb6565b92915050565b60006020820190508181036000830152610ee48184610bc5565b905092915050565b60006020820190508181036000830152610f0581610c82565b9050919050565b60006020820190508181036000830152610f2581610cc2565b9050919050565b60006020820190508181036000830152610f4581610d02565b9050919050565b60006020820190508181036000830152610f668184610e04565b905092915050565b6000604051905081810181811067ffffffffffffffff82111715610f9557610f94611222565b5b8060405250919050565b600067ffffffffffffffff821115610fba57610fb9611222565b5b601f19601f8301169050602081019050919050565b6000819050602082019050919050565b600081519050919050565b600081519050919050565b6000602082019050919050565b600082825260208201905092915050565b600082825260208201905092915050565b600082825260208201905092915050565b6000611040826110fd565b915061104b836110fd565b9250827fffffffffffffffffffffffffffffffffffffffffffffffffffffffffffffffff038211156110805761107f6111c4565b5b828201905092915050565b6000611096826110fd565b91506110a1836110fd565b9250828210156110b4576110b36111c4565b5b828203905092915050565b60006110ca826110dd565b9050919050565b60008115159050919050565b600073ffffffffffffffffffffffffffffffffffffffff82169050919050565b6000819050919050565b82818337600083830152505050565b60005b83811015611134578082015181840152602081019050611119565b83811115611143576000848401525b50505050565b6000600282049050600182168061116157607f821691505b60208210811415611175576111746111f3565b5b50919050565b6000611186826110fd565b91507fffffffffffffffffffffffffffffffffffffffffffffffffffffffffffffffff8214156111b9576111b86111c4565b5b600182019050919050565b7f4e487b7100000000000000000000000000000000000000000000000000000000600052601160045260246000fd5b7f4e487b7100000000000000000000000000000000000000000000000000000000600052602260045260246000fd5b7f4e487b7100000000000000000000000000000000000000000000000000000000600052604160045260246000fd5b6000601f19601f8301169050919050565b61126b816110fd565b811461127657600080fd5b5056fea264697066735822122046bb844ec18ed6b5d9df04305bc504272e2d7e43478c5928dfd35738b0f3406664736f6c63430008000033",
  "immutableReferences": {},
  "source": "// SPDX-License-Identifier: GPL-3.0\r\npragma solidity ^0.8.0;\r\n\r\ncontract DStore {\r\n\r\n    struct Product {\r\n        uint id;\r\n        string description;\r\n        uint price;\r\n        address owner;\r\n        bool available;\r\n        address soldTo;\r\n        bool deleted;\r\n    }\r\n\r\n    event Added(Product product);\r\n    event Deleted(Product product);\r\n    event Sold(uint id,address buyer);\r\n\r\n    uint startId;\r\n    uint curId;\r\n    Product[] array;\r\n    address public admin;\r\n\r\n    constructor(uint _startId){\r\n        startId=_startId;\r\n        curId = startId;\r\n        admin=msg.sender;\r\n    }\r\n\r\n    modifier expectsValidId(uint id){\r\n        \r\n        bool validId=id>=startId && id<startId+array.length;\r\n        require(validId,\"VALID ID EXPECTED\");\r\n        _;\r\n    }\r\n\r\n    modifier expectsValidProperties(string memory desc, uint price){\r\n        \r\n        bytes memory descBytes = bytes(desc);\r\n        require(descBytes.length>0,\"EMPTY DESCRIPTION NOT ALLOWED\");\r\n\r\n        require(price>=1 ether && price<=10 ether,\"PRICE CAN BE BETWEEN 1 AND 10 ETHERS\");\r\n        _;\r\n    }\r\n\r\n    function getAll() public view returns (Product[] memory) {\r\n        uint actualCount=0;\r\n        for (uint i = 0; i < array.length; i++) {\r\n            if(!array[i].deleted){\r\n                actualCount++;\r\n            }\r\n        }\r\n\r\n        Product[] memory col=new Product[](actualCount);\r\n        Product memory p;\r\n        uint j=0;\r\n        for (uint i = 0; i < array.length; i++) {\r\n            p=array[i];\r\n            if(!p.deleted){\r\n                col[j]=p;\r\n                j++;\r\n            }\r\n        }\r\n        return col;\r\n    }\r\n    \r\n    function add(string memory desc, uint price) public \r\n        expectsValidProperties(desc, price){\r\n\r\n        Product memory product=Product(curId, desc, price, msg.sender, true,address(0),false);\r\n\r\n        array.push(product);\r\n\r\n        curId++;\r\n\r\n        emit Added(product);\r\n    }\r\n\r\n   function getProduct(uint id) private view expectsValidId(id) returns(Product storage) {\r\n       \r\n       Product storage product=array[id-startId];\r\n       return product; \r\n   }\r\n\r\n   function deleteProduct(uint id) public {\r\n       Product memory product=getProduct(id);\r\n       product.deleted=true;\r\n\r\n   }\r\n}",
  "sourcePath": "D:\\_LEARN\\Blockchain\\_JALASAT\\final\\Back\\contracts\\DStore.sol",
  "compiler": {
    "name": "solc",
    "version": "0.8.0+commit.c7dfd78e.Emscripten.clang"
  },
  "schemaVersion": "3.4.2",
  "updatedAt": "2021-10-18T16:00:39.407Z",
  "devdoc": {
    "kind": "dev",
    "methods": {},
    "version": 1
  },
  "userdoc": {
    "kind": "user",
    "methods": {},
    "version": 1
  }
}