{
  "contractName": "DStore",
  "abi": [
    {
      "inputs": [
        {
          "internalType": "uint256",
          "name": "_tollPercent",
          "type": "uint256"
        },
        {
          "internalType": "uint256",
          "name": "_startId",
          "type": "uint256"
        }
      ],
      "stateMutability": "nonpayable",
      "type": "constructor"
    },
    {
      "anonymous": false,
      "inputs": [
        {
          "components": [
            {
              "internalType": "uint256",
              "name": "id",
              "type": "uint256"
            },
            {
              "internalType": "string",
              "name": "description",
              "type": "string"
            },
            {
              "internalType": "uint256",
              "name": "price",
              "type": "uint256"
            },
            {
              "internalType": "address payable",
              "name": "owner",
              "type": "address"
            },
            {
              "internalType": "bool",
              "name": "sold",
              "type": "bool"
            },
            {
              "internalType": "address",
              "name": "soldTo",
              "type": "address"
            },
            {
              "internalType": "bool",
              "name": "deleted",
              "type": "bool"
            }
          ],
          "indexed": false,
          "internalType": "struct DStore.Product",
          "name": "product",
          "type": "tuple"
        }
      ],
      "name": "Added",
      "type": "event"
    },
    {
      "anonymous": false,
      "inputs": [
        {
          "components": [
            {
              "internalType": "uint256",
              "name": "id",
              "type": "uint256"
            },
            {
              "internalType": "string",
              "name": "description",
              "type": "string"
            },
            {
              "internalType": "uint256",
              "name": "price",
              "type": "uint256"
            },
            {
              "internalType": "address payable",
              "name": "owner",
              "type": "address"
            },
            {
              "internalType": "bool",
              "name": "sold",
              "type": "bool"
            },
            {
              "internalType": "address",
              "name": "soldTo",
              "type": "address"
            },
            {
              "internalType": "bool",
              "name": "deleted",
              "type": "bool"
            }
          ],
          "indexed": false,
          "internalType": "struct DStore.Product",
          "name": "product",
          "type": "tuple"
        }
      ],
      "name": "Deleted",
      "type": "event"
    },
    {
      "anonymous": false,
      "inputs": [
        {
          "components": [
            {
              "internalType": "uint256",
              "name": "id",
              "type": "uint256"
            },
            {
              "internalType": "string",
              "name": "description",
              "type": "string"
            },
            {
              "internalType": "uint256",
              "name": "price",
              "type": "uint256"
            },
            {
              "internalType": "address payable",
              "name": "owner",
              "type": "address"
            },
            {
              "internalType": "bool",
              "name": "sold",
              "type": "bool"
            },
            {
              "internalType": "address",
              "name": "soldTo",
              "type": "address"
            },
            {
              "internalType": "bool",
              "name": "deleted",
              "type": "bool"
            }
          ],
          "indexed": false,
          "internalType": "struct DStore.Product",
          "name": "product",
          "type": "tuple"
        }
      ],
      "name": "Edited",
      "type": "event"
    },
    {
      "anonymous": false,
      "inputs": [
        {
          "components": [
            {
              "internalType": "uint256",
              "name": "id",
              "type": "uint256"
            },
            {
              "internalType": "string",
              "name": "description",
              "type": "string"
            },
            {
              "internalType": "uint256",
              "name": "price",
              "type": "uint256"
            },
            {
              "internalType": "address payable",
              "name": "owner",
              "type": "address"
            },
            {
              "internalType": "bool",
              "name": "sold",
              "type": "bool"
            },
            {
              "internalType": "address",
              "name": "soldTo",
              "type": "address"
            },
            {
              "internalType": "bool",
              "name": "deleted",
              "type": "bool"
            }
          ],
          "indexed": false,
          "internalType": "struct DStore.Product",
          "name": "product",
          "type": "tuple"
        }
      ],
      "name": "Sold",
      "type": "event"
    },
    {
      "inputs": [],
      "name": "admin",
      "outputs": [
        {
          "internalType": "address",
          "name": "",
          "type": "address"
        }
      ],
      "stateMutability": "view",
      "type": "function",
      "constant": true
    },
    {
      "inputs": [],
      "name": "getAll",
      "outputs": [
        {
          "components": [
            {
              "internalType": "uint256",
              "name": "id",
              "type": "uint256"
            },
            {
              "internalType": "string",
              "name": "description",
              "type": "string"
            },
            {
              "internalType": "uint256",
              "name": "price",
              "type": "uint256"
            },
            {
              "internalType": "address payable",
              "name": "owner",
              "type": "address"
            },
            {
              "internalType": "bool",
              "name": "sold",
              "type": "bool"
            },
            {
              "internalType": "address",
              "name": "soldTo",
              "type": "address"
            },
            {
              "internalType": "bool",
              "name": "deleted",
              "type": "bool"
            }
          ],
          "internalType": "struct DStore.Product[]",
          "name": "",
          "type": "tuple[]"
        }
      ],
      "stateMutability": "view",
      "type": "function",
      "constant": true
    },
    {
      "inputs": [],
      "name": "getMyProducts",
      "outputs": [
        {
          "components": [
            {
              "internalType": "uint256",
              "name": "id",
              "type": "uint256"
            },
            {
              "internalType": "string",
              "name": "description",
              "type": "string"
            },
            {
              "internalType": "uint256",
              "name": "price",
              "type": "uint256"
            },
            {
              "internalType": "address payable",
              "name": "owner",
              "type": "address"
            },
            {
              "internalType": "bool",
              "name": "sold",
              "type": "bool"
            },
            {
              "internalType": "address",
              "name": "soldTo",
              "type": "address"
            },
            {
              "internalType": "bool",
              "name": "deleted",
              "type": "bool"
            }
          ],
          "internalType": "struct DStore.Product[]",
          "name": "",
          "type": "tuple[]"
        }
      ],
      "stateMutability": "view",
      "type": "function",
      "constant": true
    },
    {
      "inputs": [
        {
          "internalType": "string",
          "name": "desc",
          "type": "string"
        },
        {
          "internalType": "uint256",
          "name": "price",
          "type": "uint256"
        }
      ],
      "name": "add",
      "outputs": [],
      "stateMutability": "nonpayable",
      "type": "function"
    },
    {
      "inputs": [
        {
          "internalType": "uint256",
          "name": "id",
          "type": "uint256"
        },
        {
          "internalType": "string",
          "name": "desc",
          "type": "string"
        },
        {
          "internalType": "uint256",
          "name": "price",
          "type": "uint256"
        }
      ],
      "name": "edit",
      "outputs": [],
      "stateMutability": "nonpayable",
      "type": "function"
    },
    {
      "inputs": [
        {
          "internalType": "uint256",
          "name": "id",
          "type": "uint256"
        }
      ],
      "name": "deleteProduct",
      "outputs": [],
      "stateMutability": "nonpayable",
      "type": "function"
    },
    {
      "inputs": [],
      "name": "canDelete",
      "outputs": [
        {
          "internalType": "bool",
          "name": "",
          "type": "bool"
        }
      ],
      "stateMutability": "view",
      "type": "function",
      "constant": true
    },
    {
      "inputs": [
        {
          "internalType": "uint256",
          "name": "id",
          "type": "uint256"
        }
      ],
      "name": "buy",
      "outputs": [],
      "stateMutability": "payable",
      "type": "function",
      "payable": true
    }
  ],
  "bytecode": "0x60806040523480156200001157600080fd5b5060405162002620380380620026208339818101604052810190620000379190620000ae565b8060008190555060005460018190555033600360006101000a81548173ffffffffffffffffffffffffffffffffffffffff021916908373ffffffffffffffffffffffffffffffffffffffff16021790555081600481905550505062000113565b600081519050620000a881620000f9565b92915050565b60008060408385031215620000c257600080fd5b6000620000d28582860162000097565b9250506020620000e58582860162000097565b9150509250929050565b6000819050919050565b6200010481620000ef565b81146200011057600080fd5b50565b6124fd80620001236000396000f3fe60806040526004361061007b5760003560e01c8063d96a094a1161004e578063d96a094a14610128578063ed90c7b714610144578063f851a4401461016d578063fdca4ca3146101985761007b565b8063246b80cf1461008057806336555b85146100ab57806353ed5143146100d457806369d1698f146100ff575b600080fd5b34801561008c57600080fd5b506100956101c3565b6040516100a29190611e63565b60405180910390f35b3480156100b757600080fd5b506100d260048036038101906100cd9190611685565b6101d2565b005b3480156100e057600080fd5b506100e96105a8565b6040516100f69190611e41565b60405180910390f35b34801561010b57600080fd5b5061012660048036038101906101219190611702565b61092a565b005b610142600480360381019061013d91906116d9565b610ad5565b005b34801561015057600080fd5b5061016b600480360381019061016691906116d9565b610e9e565b005b34801561017957600080fd5b50610182610f4a565b60405161018f9190611e26565b60405180910390f35b3480156101a457600080fd5b506101ad610f70565b6040516101ba9190611e41565b60405180910390f35b60006101cd6113d3565b905090565b81816000829050600081511161021d576040517f08c379a000000000000000000000000000000000000000000000000000000000815260040161021490611e9e565b60405180910390fd5b670de0b6b3a7640000821015801561023d5750678ac7230489e800008211155b61027c576040517f08c379a000000000000000000000000000000000000000000000000000000000815260040161027390611f7e565b60405180910390fd5b60008080600090505b60028054905081101561037157600281815481106102cc577f4e487b7100000000000000000000000000000000000000000000000000000000600052603260045260246000fd5b906000526020600020906005020191508160040160149054906101000a900460ff1615801561034a57503373ffffffffffffffffffffffffffffffffffffffff168260030160009054906101000a900473ffffffffffffffffffffffffffffffffffffffff1673ffffffffffffffffffffffffffffffffffffffff16145b1561035e57828061035a90612380565b9350505b808061036990612380565b915050610285565b5060018211156103b6576040517f08c379a00000000000000000000000000000000000000000000000000000000081526004016103ad90611f1e565b60405180910390fd5b60006040518060e0016040528060015481526020018981526020018881526020013373ffffffffffffffffffffffffffffffffffffffff168152602001600015158152602001600073ffffffffffffffffffffffffffffffffffffffff16815260200160001515815250905060028190806001815401808255809150506001900390600052602060002090600502016000909190919091506000820151816000015560208201518160010190805190602001906104749291906114f8565b506040820151816002015560608201518160030160006101000a81548173ffffffffffffffffffffffffffffffffffffffff021916908373ffffffffffffffffffffffffffffffffffffffff16021790555060808201518160030160146101000a81548160ff02191690831515021790555060a08201518160040160006101000a81548173ffffffffffffffffffffffffffffffffffffffff021916908373ffffffffffffffffffffffffffffffffffffffff16021790555060c08201518160040160146101000a81548160ff02191690831515021790555050506001600081548092919061056290612380565b91905055507fd1ecc316511450ffd030c08b1e327c1f3da3f423046b88ff15a519c25e160e0a816040516105969190611fbe565b60405180910390a15050505050505050565b60606000805b60028054905081101561063a57600281815481106105f5577f4e487b7100000000000000000000000000000000000000000000000000000000600052603260045260246000fd5b906000526020600020906005020160040160149054906101000a900460ff1661062757818061062390612380565b9250505b808061063290612380565b9150506105ae565b5060008167ffffffffffffffff81111561067d577f4e487b7100000000000000000000000000000000000000000000000000000000600052604160045260246000fd5b6040519080825280602002602001820160405280156106b657816020015b6106a361157e565b81526020019060019003908161069b5790505b5090506106c161157e565b6000805b60028054905081101561091f576002818154811061070c577f4e487b7100000000000000000000000000000000000000000000000000000000600052603260045260246000fd5b90600052602060002090600502016040518060e00160405290816000820154815260200160018201805461073f906122e6565b80601f016020809104026020016040519081016040528092919081815260200182805461076b906122e6565b80156107b85780601f1061078d576101008083540402835291602001916107b8565b820191906000526020600020905b81548152906001019060200180831161079b57829003601f168201915b50505050508152602001600282015481526020016003820160009054906101000a900473ffffffffffffffffffffffffffffffffffffffff1673ffffffffffffffffffffffffffffffffffffffff1673ffffffffffffffffffffffffffffffffffffffff1681526020016003820160149054906101000a900460ff161515151581526020016004820160009054906101000a900473ffffffffffffffffffffffffffffffffffffffff1673ffffffffffffffffffffffffffffffffffffffff1673ffffffffffffffffffffffffffffffffffffffff1681526020016004820160149054906101000a900460ff16151515158152505092508260c0015161090c57828483815181106108f2577f4e487b7100000000000000000000000000000000000000000000000000000000600052603260045260246000fd5b6020026020010181905250818061090890612380565b9250505b808061091790612380565b9150506106c5565b508294505050505090565b818160008290506000815111610975576040517f08c379a000000000000000000000000000000000000000000000000000000000815260040161096c90611e9e565b60405180910390fd5b670de0b6b3a764000082101580156109955750678ac7230489e800008211155b6109d4576040517f08c379a00000000000000000000000000000000000000000000000000000000081526004016109cb90611f7e565b60405180910390fd5b60006109df8761142b565b90503373ffffffffffffffffffffffffffffffffffffffff168160030160009054906101000a900473ffffffffffffffffffffffffffffffffffffffff1673ffffffffffffffffffffffffffffffffffffffff1614610a73576040517f08c379a0000000000000000000000000000000000000000000000000000000008152600401610a6a90611e7e565b60405180910390fd5b85816001019080519060200190610a8b9291906114f8565b508481600201819055507f8839b939e19ef445b378ac3476ffb334ddedc998209f425baad19d577f6b92ea81604051610ac49190611fe0565b60405180910390a150505050505050565b60008080600090505b600280549050811015610be45760028181548110610b25577f4e487b7100000000000000000000000000000000000000000000000000000000600052603260045260246000fd5b906000526020600020906005020191508160040160149054906101000a900460ff16158015610b6257508160030160149054906101000a900460ff165b8015610bbd57503373ffffffffffffffffffffffffffffffffffffffff168260040160009054906101000a900473ffffffffffffffffffffffffffffffffffffffff1673ffffffffffffffffffffffffffffffffffffffff16145b15610bd1578280610bcd90612380565b9350505b8080610bdc90612380565b915050610ade565b506001821115610c29576040517f08c379a0000000000000000000000000000000000000000000000000000000008152600401610c2090611f9e565b60405180910390fd5b6000610c348461142b565b90508060030160149054906101000a900460ff1615610c88576040517f08c379a0000000000000000000000000000000000000000000000000000000008152600401610c7f90611f3e565b60405180910390fd5b3373ffffffffffffffffffffffffffffffffffffffff168160030160009054906101000a900473ffffffffffffffffffffffffffffffffffffffff1673ffffffffffffffffffffffffffffffffffffffff161415610d1b576040517f08c379a0000000000000000000000000000000000000000000000000000000008152600401610d1290611efe565b60405180910390fd5b34816002015414610d61576040517f08c379a0000000000000000000000000000000000000000000000000000000008152600401610d5890611f5e565b60405180910390fd5b600081600201549050600060646004546064610d7d91906121bf565b83610d889190612165565b610d929190612134565b90508260030160009054906101000a900473ffffffffffffffffffffffffffffffffffffffff1673ffffffffffffffffffffffffffffffffffffffff166108fc829081150290604051600060405180830381858888f19350505050158015610dfe573d6000803e3d6000fd5b50338360040160006101000a81548173ffffffffffffffffffffffffffffffffffffffff021916908373ffffffffffffffffffffffffffffffffffffffff16021790555060018360030160146101000a81548160ff0219169083151502179055507f8bd7d0c83734e824c3dfee1684c55701de14f992630786becf3b4be84076219a83604051610e8e9190611fe0565b60405180910390a1505050505050565b610ea66113d3565b610ee5576040517f08c379a0000000000000000000000000000000000000000000000000000000008152600401610edc90611ede565b60405180910390fd5b6000610ef08261142b565b905060018160040160146101000a81548160ff0219169083151502179055507f9f220e877200ea7aef94e7c098510038e565aa31f8d0edd2fad7cefa0a7f176081604051610f3e9190611fe0565b60405180910390a15050565b600360009054906101000a900473ffffffffffffffffffffffffffffffffffffffff1681565b60606000805b6002805490508110156110a65760028181548110610fbd577f4e487b7100000000000000000000000000000000000000000000000000000000600052603260045260246000fd5b906000526020600020906005020160040160149054906101000a900460ff1615801561107f57503373ffffffffffffffffffffffffffffffffffffffff1660028281548110611035577f4e487b7100000000000000000000000000000000000000000000000000000000600052603260045260246000fd5b906000526020600020906005020160030160009054906101000a900473ffffffffffffffffffffffffffffffffffffffff1673ffffffffffffffffffffffffffffffffffffffff16145b1561109357818061108f90612380565b9250505b808061109e90612380565b915050610f76565b5060008167ffffffffffffffff8111156110e9577f4e487b7100000000000000000000000000000000000000000000000000000000600052604160045260246000fd5b60405190808252806020026020018201604052801561112257816020015b61110f61157e565b8152602001906001900390816111075790505b50905061112d61157e565b6000805b6002805490508110156113c85760028181548110611178577f4e487b7100000000000000000000000000000000000000000000000000000000600052603260045260246000fd5b90600052602060002090600502016040518060e0016040529081600082015481526020016001820180546111ab906122e6565b80601f01602080910402602001604051908101604052809291908181526020018280546111d7906122e6565b80156112245780601f106111f957610100808354040283529160200191611224565b820191906000526020600020905b81548152906001019060200180831161120757829003601f168201915b50505050508152602001600282015481526020016003820160009054906101000a900473ffffffffffffffffffffffffffffffffffffffff1673ffffffffffffffffffffffffffffffffffffffff1673ffffffffffffffffffffffffffffffffffffffff1681526020016003820160149054906101000a900460ff161515151581526020016004820160009054906101000a900473ffffffffffffffffffffffffffffffffffffffff1673ffffffffffffffffffffffffffffffffffffffff1673ffffffffffffffffffffffffffffffffffffffff1681526020016004820160149054906101000a900460ff16151515158152505092508260c0015115801561135c57503373ffffffffffffffffffffffffffffffffffffffff16836060015173ffffffffffffffffffffffffffffffffffffffff16145b156113b5578284838151811061139b577f4e487b7100000000000000000000000000000000000000000000000000000000600052603260045260246000fd5b602002602001018190525081806113b190612380565b9250505b80806113c090612380565b915050611131565b508294505050505090565b6000600360009054906101000a900473ffffffffffffffffffffffffffffffffffffffff1673ffffffffffffffffffffffffffffffffffffffff163373ffffffffffffffffffffffffffffffffffffffff1614905090565b600081600080548210158015611452575060028054905060005461144f91906120de565b82105b905080611494576040517f08c379a000000000000000000000000000000000000000000000000000000000815260040161148b90611ebe565b60405180910390fd5b60006002600054866114a691906121bf565b815481106114dd577f4e487b7100000000000000000000000000000000000000000000000000000000600052603260045260246000fd5b90600052602060002090600502019050809350505050919050565b828054611504906122e6565b90600052602060002090601f016020900481019282611526576000855561156d565b82601f1061153f57805160ff191683800117855561156d565b8280016001018555821561156d579182015b8281111561156c578251825591602001919060010190611551565b5b50905061157a91906115eb565b5090565b6040518060e00160405280600081526020016060815260200160008152602001600073ffffffffffffffffffffffffffffffffffffffff168152602001600015158152602001600073ffffffffffffffffffffffffffffffffffffffff1681526020016000151581525090565b5b808211156116045760008160009055506001016115ec565b5090565b600061161b61161684612033565b612002565b90508281526020810184848401111561163357600080fd5b61163e8482856122a4565b509392505050565b600082601f83011261165757600080fd5b8135611667848260208601611608565b91505092915050565b60008135905061167f816124b0565b92915050565b6000806040838503121561169857600080fd5b600083013567ffffffffffffffff8111156116b257600080fd5b6116be85828601611646565b92505060206116cf85828601611670565b9150509250929050565b6000602082840312156116eb57600080fd5b60006116f984828501611670565b91505092915050565b60008060006060848603121561171757600080fd5b600061172586828701611670565b935050602084013567ffffffffffffffff81111561174257600080fd5b61174e86828701611646565b925050604061175f86828701611670565b9150509250925092565b60006117758383611c0e565b905092915050565b6117868161225c565b82525050565b6117958161224a565b82525050565b6117a48161224a565b82525050565b60006117b582612088565b6117bf81856120ab565b9350836020820285016117d185612063565b8060005b8581101561180d57848403895281516117ee8582611769565b94506117f98361209e565b925060208a019950506001810190506117d5565b50829750879550505050505092915050565b6118288161226e565b82525050565b6118378161226e565b82525050565b600061184882612093565b61185281856120bc565b93506118628185602086016122b3565b61186b81612485565b840191505092915050565b60008154611883816122e6565b61188d81866120bc565b945060018216600081146118a857600181146118ba576118ed565b60ff19831686526020860193506118ed565b6118c385612073565b60005b838110156118e5578154818901526001820191506020810190506118c6565b808801955050505b50505092915050565b60006119036023836120cd565b91507f4f4e4c59204f574e4552204f4620412050524f445543542043414e204544495460008301527f20495400000000000000000000000000000000000000000000000000000000006020830152604082019050919050565b6000611969601d836120cd565b91507f454d505459204445534352495054494f4e204e4f5420414c4c4f5745440000006000830152602082019050919050565b60006119a96011836120cd565b91507f56414c49442049442045585045435445440000000000000000000000000000006000830152602082019050919050565b60006119e96016836120cd565b91507f4f4e4c592041444d494e2043414e20444f2054484953000000000000000000006000830152602082019050919050565b6000611a296020836120cd565b91507f4f574e4552204f4620412050524f445543542043414e4e4f54204255592049546000830152602082019050919050565b6000611a696031836120cd565b91507f4d4158494d554d2050524f445543545320414c4c4f5745442046524f4d20454160008301527f434820414444524553532049532054574f0000000000000000000000000000006020830152604082019050919050565b6000611acf6019836120cd565b91507f43414e4e4f5420425559204120534f4c442050524f44554354000000000000006000830152602082019050919050565b6000611b0f601d836120cd565b91507f494e56414c49442050524943452056414c5545205350454349464945440000006000830152602082019050919050565b6000611b4f6024836120cd565b91507f50524943452043414e204245204245545745454e203120414e4420313020455460008301527f48455253000000000000000000000000000000000000000000000000000000006020830152604082019050919050565b6000611bb56027836120cd565b91507f4d4158494d554d20425559494e472046524f4d2045414348204144445245535360008301527f2049532054574f000000000000000000000000000000000000000000000000006020830152604082019050919050565b600060e083016000830151611c266000860182611e17565b5060208301518482036020860152611c3e828261183d565b9150506040830151611c536040860182611e17565b506060830151611c66606086018261177d565b506080830151611c79608086018261181f565b5060a0830151611c8c60a086018261178c565b5060c0830151611c9f60c086018261181f565b508091505092915050565b600060e083016000830151611cc26000860182611e17565b5060208301518482036020860152611cda828261183d565b9150506040830151611cef6040860182611e17565b506060830151611d02606086018261177d565b506080830151611d15608086018261181f565b5060a0830151611d2860a086018261178c565b5060c0830151611d3b60c086018261181f565b508091505092915050565b600060e083016000808401549050611d5d8161234c565b611d6a6000870182611e17565b50600184018583036020870152611d818382611876565b92505060028401549050611d948161234c565b611da16040870182611e17565b5060038401549050611db281612332565b611dbf606087018261177d565b50611dc981612366565b611dd6608087018261181f565b5060048401549050611de781612318565b611df460a087018261178c565b50611dfe81612366565b611e0b60c087018261181f565b50819250505092915050565b611e208161229a565b82525050565b6000602082019050611e3b600083018461179b565b92915050565b60006020820190508181036000830152611e5b81846117aa565b905092915050565b6000602082019050611e78600083018461182e565b92915050565b60006020820190508181036000830152611e97816118f6565b9050919050565b60006020820190508181036000830152611eb78161195c565b9050919050565b60006020820190508181036000830152611ed78161199c565b9050919050565b60006020820190508181036000830152611ef7816119dc565b9050919050565b60006020820190508181036000830152611f1781611a1c565b9050919050565b60006020820190508181036000830152611f3781611a5c565b9050919050565b60006020820190508181036000830152611f5781611ac2565b9050919050565b60006020820190508181036000830152611f7781611b02565b9050919050565b60006020820190508181036000830152611f9781611b42565b9050919050565b60006020820190508181036000830152611fb781611ba8565b9050919050565b60006020820190508181036000830152611fd88184611caa565b905092915050565b60006020820190508181036000830152611ffa8184611d46565b905092915050565b6000604051905081810181811067ffffffffffffffff8211171561202957612028612456565b5b8060405250919050565b600067ffffffffffffffff82111561204e5761204d612456565b5b601f19601f8301169050602081019050919050565b6000819050602082019050919050565b60008190508160005260206000209050919050565b600081519050919050565b600081519050919050565b6000602082019050919050565b600082825260208201905092915050565b600082825260208201905092915050565b600082825260208201905092915050565b60006120e98261229a565b91506120f48361229a565b9250827fffffffffffffffffffffffffffffffffffffffffffffffffffffffffffffffff03821115612129576121286123c9565b5b828201905092915050565b600061213f8261229a565b915061214a8361229a565b92508261215a576121596123f8565b5b828204905092915050565b60006121708261229a565b915061217b8361229a565b9250817fffffffffffffffffffffffffffffffffffffffffffffffffffffffffffffffff04831182151516156121b4576121b36123c9565b5b828202905092915050565b60006121ca8261229a565b91506121d58361229a565b9250828210156121e8576121e76123c9565b5b828203905092915050565b600073ffffffffffffffffffffffffffffffffffffffff82169050919050565b600073ffffffffffffffffffffffffffffffffffffffff82169050919050565b600060ff82169050919050565b6000819050919050565b60006122558261227a565b9050919050565b60006122678261227a565b9050919050565b60008115159050919050565b600073ffffffffffffffffffffffffffffffffffffffff82169050919050565b6000819050919050565b82818337600083830152505050565b60005b838110156122d15780820151818401526020810190506122b6565b838111156122e0576000848401525b50505050565b600060028204905060018216806122fe57607f821691505b6020821081141561231257612311612427565b5b50919050565b600061232b61232683612496565b6121f3565b9050919050565b600061234561234083612496565b612213565b9050919050565b600061235f61235a83612496565b612240565b9050919050565b6000612379612374836124a3565b612233565b9050919050565b600061238b8261229a565b91507fffffffffffffffffffffffffffffffffffffffffffffffffffffffffffffffff8214156123be576123bd6123c9565b5b600182019050919050565b7f4e487b7100000000000000000000000000000000000000000000000000000000600052601160045260246000fd5b7f4e487b7100000000000000000000000000000000000000000000000000000000600052601260045260246000fd5b7f4e487b7100000000000000000000000000000000000000000000000000000000600052602260045260246000fd5b7f4e487b7100000000000000000000000000000000000000000000000000000000600052604160045260246000fd5b6000601f19601f8301169050919050565b60008160001c9050919050565b60008160a01c9050919050565b6124b98161229a565b81146124c457600080fd5b5056fea26469706673582212202a98204e5a0651bcdf9eab5e1b83afe6b855fa90132907d77fdf0b5bae2692bc64736f6c63430008000033",
  "immutableReferences": {},
  "source": "// SPDX-License-Identifier: GPL-3.0\r\npragma solidity ^0.8.0;\r\n\r\ncontract DStore {\r\n\r\n    struct Product {\r\n        uint id;\r\n        string description;\r\n        uint price;\r\n        address payable owner;\r\n        bool sold;\r\n        address soldTo;\r\n        bool deleted;\r\n    }\r\n\r\n    event Added(Product product);\r\n    event Deleted(Product product);\r\n    event Sold(Product product);\r\n    event Edited(Product product);\r\n\r\n    uint startId;\r\n    uint curId;\r\n    Product[] array;\r\n    address public admin;\r\n    uint tollPercent;\r\n\r\n    constructor(uint _tollPercent,uint _startId){\r\n        startId=_startId;\r\n        curId = startId;\r\n        admin=msg.sender;\r\n        tollPercent=_tollPercent;\r\n    }\r\n\r\n    modifier expectsValidId(uint id){\r\n        \r\n        bool validId=id>=startId && id<startId+array.length;\r\n        require(validId,\"VALID ID EXPECTED\");\r\n        _;\r\n    }\r\n\r\n    modifier expectsAdmin(){\r\n        require(isAdmin(),\"ONLY ADMIN CAN DO THIS\");\r\n        _;\r\n    }\r\n\r\n    function isAdmin() private view returns (bool) {\r\n        return msg.sender==admin;\r\n    }\r\n\r\n    modifier expectsValidProperties(string memory desc, uint price){\r\n        \r\n        bytes memory descBytes = bytes(desc);\r\n        require(descBytes.length>0,\"EMPTY DESCRIPTION NOT ALLOWED\");\r\n\r\n        require(price>=1 ether && price<=10 ether,\"PRICE CAN BE BETWEEN 1 AND 10 ETHERS\");\r\n        _;\r\n    }\r\n\r\n    modifier checkMaximumAddedFromAddress(){\r\n        \r\n        uint count=0;\r\n        Product storage p;\r\n        for (uint i = 0; i < array.length; i++) {\r\n            p=array[i];\r\n            if(!p.deleted && p.owner==msg.sender){\r\n                count++;\r\n            }\r\n        }\r\n        require(count<=1,\"MAXIMUM PRODUCTS ALLOWED FROM EACH ADDRESS IS TWO\");\r\n        _;\r\n    }\r\n\r\n    modifier checkMaximumBuyingFromAddress(){\r\n        \r\n        uint count=0;\r\n        Product storage p;\r\n        for (uint i = 0; i < array.length; i++) {\r\n            p=array[i];\r\n            if(!p.deleted && p.sold && p.soldTo==msg.sender){\r\n                count++;\r\n            }\r\n        }\r\n        require(count<=1,\"MAXIMUM BUYING FROM EACH ADDRESS IS TWO\");\r\n        _;\r\n    }\r\n\r\n    function getAll() public view returns (Product[] memory) {\r\n        uint effectiveCount=0;\r\n        for (uint i = 0; i < array.length; i++) {\r\n            if(!array[i].deleted){\r\n                effectiveCount++;\r\n            }\r\n        }\r\n\r\n        Product[] memory col=new Product[](effectiveCount);\r\n        Product memory p;\r\n        uint j=0;\r\n        for (uint i = 0; i < array.length; i++) {\r\n            p=array[i];\r\n            if(!p.deleted){\r\n                col[j]=p;\r\n                j++;\r\n            }\r\n        }\r\n        return col;\r\n    }\r\n    \r\n    function getMyProducts() public view returns (Product[] memory) {\r\n        \r\n        uint count=0;\r\n        for (uint i = 0; i < array.length; i++) {\r\n            if(!array[i].deleted && array[i].owner==msg.sender){\r\n                count++;\r\n            }\r\n        }\r\n\r\n        Product[] memory col=new Product[](count);\r\n        Product memory p;\r\n        uint j=0;\r\n        for (uint i = 0; i < array.length; i++) {\r\n            p=array[i];\r\n            if(!p.deleted && p.owner==msg.sender){\r\n                col[j]=p;\r\n                j++;\r\n            }\r\n        }\r\n        return col;\r\n    }\r\n\r\n    function add(string memory desc, uint price) public  \r\n        expectsValidProperties(desc, price)\r\n        checkMaximumAddedFromAddress(){\r\n\r\n        Product memory p=Product(curId, desc, price, payable(msg.sender), false,address(0),false);\r\n\r\n        array.push(p);\r\n\r\n        curId++;\r\n\r\n        emit Added(p);\r\n    }\r\n\r\n    function edit(uint id, string memory desc, uint price) public  \r\n        expectsValidProperties(desc, price){\r\n\r\n        Product storage p=getProduct(id);\r\n\r\n        require(p.owner==msg.sender,\"ONLY OWNER OF A PRODUCT CAN EDIT IT\");\r\n\r\n        p.description=desc;\r\n        p.price=price;\r\n        \r\n        emit Edited(p);\r\n    }\r\n\r\n   function getProduct(uint id) private view expectsValidId(id) returns(Product storage) {\r\n       \r\n       Product storage p=array[id-startId];\r\n       return p; \r\n   }\r\n\r\n   function deleteProduct(uint id) public expectsAdmin {\r\n       Product storage p=getProduct(id);\r\n       p.deleted=true;\r\n\r\n       emit Deleted(p);\r\n   }\r\n\r\n   function canDelete() public view returns(bool) {\r\n       return isAdmin();\r\n   }\r\n\r\n   function buy(uint id) public payable checkMaximumBuyingFromAddress() {\r\n\r\n        Product storage p=getProduct(id);\r\n\r\n        require(!p.sold,\"CANNOT BUY A SOLD PRODUCT\");\r\n        require(p.owner!=msg.sender,\"OWNER OF A PRODUCT CANNOT BUY IT\");\r\n        require(p.price==msg.value,\"INVALID PRICE VALUE SPECIFIED\");\r\n\r\n        uint price=p.price;\r\n\r\n        uint ownerGain=price*(100-tollPercent)/100;\r\n\r\n        p.owner.transfer(ownerGain);\r\n\r\n        //not needed(& doesn't work this way); it's done automatically \r\n        //uint contractGain=price*tollPercent/100;\r\n        //payable(address(this)).transfer(contractGain);\r\n        \r\n        p.soldTo=msg.sender;\r\n        p.sold=true;\r\n\r\n        emit Sold(p);\r\n    }\r\n}",
  "sourcePath": "D:\\_LEARN\\Blockchain\\_JALASAT\\final\\Back\\contracts\\DStore.sol",
  "compiler": {
    "name": "solc",
    "version": "0.8.0+commit.c7dfd78e.Emscripten.clang"
  },
  "schemaVersion": "3.4.2",
  "updatedAt": "2021-10-21T17:16:54.195Z",
  "networkType": "ethereum",
  "devdoc": {
    "kind": "dev",
    "methods": {},
    "version": 1
  },
  "userdoc": {
    "kind": "user",
    "methods": {},
    "version": 1
  }
}