{
  "contractName": "DStore",
  "abi": [
    {
      "inputs": [
        {
          "internalType": "uint256",
          "name": "_minPrice",
          "type": "uint256"
        },
        {
          "internalType": "uint256",
          "name": "_maxPrice",
          "type": "uint256"
        },
        {
          "internalType": "uint256",
          "name": "_tollPercent",
          "type": "uint256"
        },
        {
          "internalType": "uint256",
          "name": "_maxAddPerAddress",
          "type": "uint256"
        },
        {
          "internalType": "uint256",
          "name": "_maxBuyPerAddress",
          "type": "uint256"
        },
        {
          "internalType": "uint256",
          "name": "_startId",
          "type": "uint256"
        }
      ],
      "stateMutability": "nonpayable",
      "type": "constructor"
    },
    {
      "anonymous": false,
      "inputs": [
        {
          "components": [
            {
              "internalType": "uint256",
              "name": "id",
              "type": "uint256"
            },
            {
              "internalType": "string",
              "name": "description",
              "type": "string"
            },
            {
              "internalType": "uint256",
              "name": "price",
              "type": "uint256"
            },
            {
              "internalType": "address payable",
              "name": "owner",
              "type": "address"
            },
            {
              "internalType": "bool",
              "name": "sold",
              "type": "bool"
            },
            {
              "internalType": "address",
              "name": "soldTo",
              "type": "address"
            },
            {
              "internalType": "bool",
              "name": "deleted",
              "type": "bool"
            }
          ],
          "indexed": false,
          "internalType": "struct DStore.Product",
          "name": "product",
          "type": "tuple"
        }
      ],
      "name": "Added",
      "type": "event"
    },
    {
      "anonymous": false,
      "inputs": [
        {
          "components": [
            {
              "internalType": "uint256",
              "name": "id",
              "type": "uint256"
            },
            {
              "internalType": "string",
              "name": "description",
              "type": "string"
            },
            {
              "internalType": "uint256",
              "name": "price",
              "type": "uint256"
            },
            {
              "internalType": "address payable",
              "name": "owner",
              "type": "address"
            },
            {
              "internalType": "bool",
              "name": "sold",
              "type": "bool"
            },
            {
              "internalType": "address",
              "name": "soldTo",
              "type": "address"
            },
            {
              "internalType": "bool",
              "name": "deleted",
              "type": "bool"
            }
          ],
          "indexed": false,
          "internalType": "struct DStore.Product",
          "name": "product",
          "type": "tuple"
        }
      ],
      "name": "Deleted",
      "type": "event"
    },
    {
      "anonymous": false,
      "inputs": [
        {
          "components": [
            {
              "internalType": "uint256",
              "name": "id",
              "type": "uint256"
            },
            {
              "internalType": "string",
              "name": "description",
              "type": "string"
            },
            {
              "internalType": "uint256",
              "name": "price",
              "type": "uint256"
            },
            {
              "internalType": "address payable",
              "name": "owner",
              "type": "address"
            },
            {
              "internalType": "bool",
              "name": "sold",
              "type": "bool"
            },
            {
              "internalType": "address",
              "name": "soldTo",
              "type": "address"
            },
            {
              "internalType": "bool",
              "name": "deleted",
              "type": "bool"
            }
          ],
          "indexed": false,
          "internalType": "struct DStore.Product",
          "name": "product",
          "type": "tuple"
        }
      ],
      "name": "Sold",
      "type": "event"
    },
    {
      "anonymous": false,
      "inputs": [
        {
          "components": [
            {
              "internalType": "uint256",
              "name": "id",
              "type": "uint256"
            },
            {
              "internalType": "string",
              "name": "description",
              "type": "string"
            },
            {
              "internalType": "uint256",
              "name": "price",
              "type": "uint256"
            },
            {
              "internalType": "address payable",
              "name": "owner",
              "type": "address"
            },
            {
              "internalType": "bool",
              "name": "sold",
              "type": "bool"
            },
            {
              "internalType": "address",
              "name": "soldTo",
              "type": "address"
            },
            {
              "internalType": "bool",
              "name": "deleted",
              "type": "bool"
            }
          ],
          "indexed": false,
          "internalType": "struct DStore.Product",
          "name": "product",
          "type": "tuple"
        }
      ],
      "name": "Updated",
      "type": "event"
    },
    {
      "inputs": [],
      "name": "admin",
      "outputs": [
        {
          "internalType": "address",
          "name": "",
          "type": "address"
        }
      ],
      "stateMutability": "view",
      "type": "function",
      "constant": true
    },
    {
      "inputs": [],
      "name": "isAdmin",
      "outputs": [
        {
          "internalType": "bool",
          "name": "",
          "type": "bool"
        }
      ],
      "stateMutability": "view",
      "type": "function",
      "constant": true
    },
    {
      "inputs": [],
      "name": "getAdmin",
      "outputs": [
        {
          "internalType": "address",
          "name": "",
          "type": "address"
        }
      ],
      "stateMutability": "view",
      "type": "function",
      "constant": true
    },
    {
      "inputs": [],
      "name": "getAll",
      "outputs": [
        {
          "components": [
            {
              "internalType": "uint256",
              "name": "id",
              "type": "uint256"
            },
            {
              "internalType": "string",
              "name": "description",
              "type": "string"
            },
            {
              "internalType": "uint256",
              "name": "price",
              "type": "uint256"
            },
            {
              "internalType": "address payable",
              "name": "owner",
              "type": "address"
            },
            {
              "internalType": "bool",
              "name": "sold",
              "type": "bool"
            },
            {
              "internalType": "address",
              "name": "soldTo",
              "type": "address"
            },
            {
              "internalType": "bool",
              "name": "deleted",
              "type": "bool"
            }
          ],
          "internalType": "struct DStore.Product[]",
          "name": "",
          "type": "tuple[]"
        }
      ],
      "stateMutability": "view",
      "type": "function",
      "constant": true
    },
    {
      "inputs": [],
      "name": "getMyProducts",
      "outputs": [
        {
          "components": [
            {
              "internalType": "uint256",
              "name": "id",
              "type": "uint256"
            },
            {
              "internalType": "string",
              "name": "description",
              "type": "string"
            },
            {
              "internalType": "uint256",
              "name": "price",
              "type": "uint256"
            },
            {
              "internalType": "address payable",
              "name": "owner",
              "type": "address"
            },
            {
              "internalType": "bool",
              "name": "sold",
              "type": "bool"
            },
            {
              "internalType": "address",
              "name": "soldTo",
              "type": "address"
            },
            {
              "internalType": "bool",
              "name": "deleted",
              "type": "bool"
            }
          ],
          "internalType": "struct DStore.Product[]",
          "name": "",
          "type": "tuple[]"
        }
      ],
      "stateMutability": "view",
      "type": "function",
      "constant": true
    },
    {
      "inputs": [
        {
          "internalType": "string",
          "name": "desc",
          "type": "string"
        },
        {
          "internalType": "uint256",
          "name": "price",
          "type": "uint256"
        }
      ],
      "name": "add",
      "outputs": [],
      "stateMutability": "nonpayable",
      "type": "function"
    },
    {
      "inputs": [
        {
          "internalType": "uint256",
          "name": "id",
          "type": "uint256"
        },
        {
          "internalType": "string",
          "name": "desc",
          "type": "string"
        },
        {
          "internalType": "uint256",
          "name": "price",
          "type": "uint256"
        }
      ],
      "name": "update",
      "outputs": [],
      "stateMutability": "nonpayable",
      "type": "function"
    },
    {
      "inputs": [
        {
          "internalType": "uint256",
          "name": "id",
          "type": "uint256"
        }
      ],
      "name": "get",
      "outputs": [
        {
          "components": [
            {
              "internalType": "uint256",
              "name": "id",
              "type": "uint256"
            },
            {
              "internalType": "string",
              "name": "description",
              "type": "string"
            },
            {
              "internalType": "uint256",
              "name": "price",
              "type": "uint256"
            },
            {
              "internalType": "address payable",
              "name": "owner",
              "type": "address"
            },
            {
              "internalType": "bool",
              "name": "sold",
              "type": "bool"
            },
            {
              "internalType": "address",
              "name": "soldTo",
              "type": "address"
            },
            {
              "internalType": "bool",
              "name": "deleted",
              "type": "bool"
            }
          ],
          "internalType": "struct DStore.Product",
          "name": "",
          "type": "tuple"
        }
      ],
      "stateMutability": "view",
      "type": "function",
      "constant": true
    },
    {
      "inputs": [
        {
          "internalType": "uint256",
          "name": "id",
          "type": "uint256"
        }
      ],
      "name": "deleteProduct",
      "outputs": [],
      "stateMutability": "nonpayable",
      "type": "function"
    },
    {
      "inputs": [],
      "name": "canDelete",
      "outputs": [
        {
          "internalType": "bool",
          "name": "",
          "type": "bool"
        }
      ],
      "stateMutability": "view",
      "type": "function",
      "constant": true
    },
    {
      "inputs": [
        {
          "internalType": "uint256",
          "name": "id",
          "type": "uint256"
        }
      ],
      "name": "buy",
      "outputs": [],
      "stateMutability": "payable",
      "type": "function",
      "payable": true
    },
    {
      "inputs": [],
      "name": "getContractBalance",
      "outputs": [
        {
          "internalType": "uint256",
          "name": "",
          "type": "uint256"
        }
      ],
      "stateMutability": "view",
      "type": "function",
      "constant": true
    }
  ],
  "bytecode": "0x60806040523480156200001157600080fd5b5060405162002a7538038062002a758339818101604052810190620000379190620000ce565b85600581905550846006819055508060008190555060005460018190555083600481905550826007819055508160088190555033600360006101000a81548173ffffffffffffffffffffffffffffffffffffffff021916908373ffffffffffffffffffffffffffffffffffffffff16021790555050505050505062000188565b600081519050620000c8816200016e565b92915050565b60008060008060008060c08789031215620000e857600080fd5b6000620000f889828a01620000b7565b96505060206200010b89828a01620000b7565b95505060406200011e89828a01620000b7565b94505060606200013189828a01620000b7565b93505060806200014489828a01620000b7565b92505060a06200015789828a01620000b7565b9150509295509295509295565b6000819050919050565b620001798162000164565b81146200018557600080fd5b50565b6128dd80620001986000396000f3fe6080604052600436106100a75760003560e01c8063ad841e0711610064578063ad841e07146101be578063b6db75a0146101e7578063d96a094a14610212578063ed90c7b71461022e578063f851a44014610257578063fdca4ca314610282576100a7565b8063246b80cf146100ac57806336555b85146100d757806353ed5143146101005780636e9960c31461012b5780636f9fb98a146101565780639507d39a14610181575b600080fd5b3480156100b857600080fd5b506100c16102ad565b6040516100ce9190612228565b60405180910390f35b3480156100e357600080fd5b506100fe60048036038101906100f99190611a3b565b6102bc565b005b34801561010c57600080fd5b506101156106ac565b6040516101229190612206565b60405180910390f35b34801561013757600080fd5b50610140610a2e565b60405161014d91906121eb565b60405180910390f35b34801561016257600080fd5b5061016b610a58565b60405161017891906123c7565b60405180910390f35b34801561018d57600080fd5b506101a860048036038101906101a39190611a8f565b610a60565b6040516101b59190612383565b60405180910390f35b3480156101ca57600080fd5b506101e560048036038101906101e09190611ab8565b610cc6565b005b3480156101f357600080fd5b506101fc610e8b565b6040516102099190612228565b60405180910390f35b61022c60048036038101906102279190611a8f565b610ee3565b005b34801561023a57600080fd5b5061025560048036038101906102509190611a8f565b6112ac565b005b34801561026357600080fd5b5061026c611358565b60405161027991906121eb565b60405180910390f35b34801561028e57600080fd5b5061029761137e565b6040516102a49190612206565b60405180910390f35b60006102b7610e8b565b905090565b818160008290506000815111610307576040517f08c379a00000000000000000000000000000000000000000000000000000000081526004016102fe90612263565b60405180910390fd5b670de0b6b3a764000060055461031d9190612545565b82101580156103415750670de0b6b3a764000060065461033d9190612545565b8211155b610380576040517f08c379a000000000000000000000000000000000000000000000000000000000815260040161037790612343565b60405180910390fd5b60008080600090505b60028054905081101561047557600281815481106103d0577f4e487b7100000000000000000000000000000000000000000000000000000000600052603260045260246000fd5b906000526020600020906005020191508160040160149054906101000a900460ff1615801561044e57503373ffffffffffffffffffffffffffffffffffffffff168260030160009054906101000a900473ffffffffffffffffffffffffffffffffffffffff1673ffffffffffffffffffffffffffffffffffffffff16145b1561046257828061045e90612760565b9350505b808061046d90612760565b915050610389565b5060075482106104ba576040517f08c379a00000000000000000000000000000000000000000000000000000000081526004016104b190612363565b60405180910390fd5b60006040518060e0016040528060015481526020018981526020018881526020013373ffffffffffffffffffffffffffffffffffffffff168152602001600015158152602001600073ffffffffffffffffffffffffffffffffffffffff16815260200160001515815250905060028190806001815401808255809150506001900390600052602060002090600502016000909190919091506000820151816000015560208201518160010190805190602001906105789291906118ae565b506040820151816002015560608201518160030160006101000a81548173ffffffffffffffffffffffffffffffffffffffff021916908373ffffffffffffffffffffffffffffffffffffffff16021790555060808201518160030160146101000a81548160ff02191690831515021790555060a08201518160040160006101000a81548173ffffffffffffffffffffffffffffffffffffffff021916908373ffffffffffffffffffffffffffffffffffffffff16021790555060c08201518160040160146101000a81548160ff02191690831515021790555050506001600081548092919061066690612760565b91905055507fd1ecc316511450ffd030c08b1e327c1f3da3f423046b88ff15a519c25e160e0a8160405161069a9190612383565b60405180910390a15050505050505050565b60606000805b60028054905081101561073e57600281815481106106f9577f4e487b7100000000000000000000000000000000000000000000000000000000600052603260045260246000fd5b906000526020600020906005020160040160149054906101000a900460ff1661072b57818061072790612760565b9250505b808061073690612760565b9150506106b2565b5060008167ffffffffffffffff811115610781577f4e487b7100000000000000000000000000000000000000000000000000000000600052604160045260246000fd5b6040519080825280602002602001820160405280156107ba57816020015b6107a7611934565b81526020019060019003908161079f5790505b5090506107c5611934565b6000805b600280549050811015610a235760028181548110610810577f4e487b7100000000000000000000000000000000000000000000000000000000600052603260045260246000fd5b90600052602060002090600502016040518060e001604052908160008201548152602001600182018054610843906126c6565b80601f016020809104026020016040519081016040528092919081815260200182805461086f906126c6565b80156108bc5780601f10610891576101008083540402835291602001916108bc565b820191906000526020600020905b81548152906001019060200180831161089f57829003601f168201915b50505050508152602001600282015481526020016003820160009054906101000a900473ffffffffffffffffffffffffffffffffffffffff1673ffffffffffffffffffffffffffffffffffffffff1673ffffffffffffffffffffffffffffffffffffffff1681526020016003820160149054906101000a900460ff161515151581526020016004820160009054906101000a900473ffffffffffffffffffffffffffffffffffffffff1673ffffffffffffffffffffffffffffffffffffffff1673ffffffffffffffffffffffffffffffffffffffff1681526020016004820160149054906101000a900460ff16151515158152505092508260c00151610a1057828483815181106109f6577f4e487b7100000000000000000000000000000000000000000000000000000000600052603260045260246000fd5b60200260200101819052508180610a0c90612760565b9250505b8080610a1b90612760565b9150506107c9565b508294505050505090565b6000600360009054906101000a900473ffffffffffffffffffffffffffffffffffffffff16905090565b600047905090565b610a68611934565b81600080548210158015610a8d5750600280549050600054610a8a91906124be565b82105b905080610acf576040517f08c379a0000000000000000000000000000000000000000000000000000000008152600401610ac690612283565b60405180910390fd5b6000600260005486610ae1919061259f565b81548110610b18577f4e487b7100000000000000000000000000000000000000000000000000000000600052603260045260246000fd5b90600052602060002090600502016040518060e001604052908160008201548152602001600182018054610b4b906126c6565b80601f0160208091040260200160405190810160405280929190818152602001828054610b77906126c6565b8015610bc45780601f10610b9957610100808354040283529160200191610bc4565b820191906000526020600020905b815481529060010190602001808311610ba757829003601f168201915b50505050508152602001600282015481526020016003820160009054906101000a900473ffffffffffffffffffffffffffffffffffffffff1673ffffffffffffffffffffffffffffffffffffffff1673ffffffffffffffffffffffffffffffffffffffff1681526020016003820160149054906101000a900460ff161515151581526020016004820160009054906101000a900473ffffffffffffffffffffffffffffffffffffffff1673ffffffffffffffffffffffffffffffffffffffff1673ffffffffffffffffffffffffffffffffffffffff1681526020016004820160149054906101000a900460ff1615151515815250509050809350505050919050565b818160008290506000815111610d11576040517f08c379a0000000000000000000000000000000000000000000000000000000008152600401610d0890612263565b60405180910390fd5b670de0b6b3a7640000600554610d279190612545565b8210158015610d4b5750670de0b6b3a7640000600654610d479190612545565b8211155b610d8a576040517f08c379a0000000000000000000000000000000000000000000000000000000008152600401610d8190612343565b60405180910390fd5b6000610d95876117e1565b90503373ffffffffffffffffffffffffffffffffffffffff168160030160009054906101000a900473ffffffffffffffffffffffffffffffffffffffff1673ffffffffffffffffffffffffffffffffffffffff1614610e29576040517f08c379a0000000000000000000000000000000000000000000000000000000008152600401610e2090612243565b60405180910390fd5b85816001019080519060200190610e419291906118ae565b508481600201819055507f36d67b2fbfd7858249f121d172b92ff53baea69e81802ba2c0acf7e7293c35bd81604051610e7a91906123a5565b60405180910390a150505050505050565b6000600360009054906101000a900473ffffffffffffffffffffffffffffffffffffffff1673ffffffffffffffffffffffffffffffffffffffff163373ffffffffffffffffffffffffffffffffffffffff1614905090565b60008080600090505b600280549050811015610ff25760028181548110610f33577f4e487b7100000000000000000000000000000000000000000000000000000000600052603260045260246000fd5b906000526020600020906005020191508160040160149054906101000a900460ff16158015610f7057508160030160149054906101000a900460ff165b8015610fcb57503373ffffffffffffffffffffffffffffffffffffffff168260040160009054906101000a900473ffffffffffffffffffffffffffffffffffffffff1673ffffffffffffffffffffffffffffffffffffffff16145b15610fdf578280610fdb90612760565b9350505b8080610fea90612760565b915050610eec565b506008548210611037576040517f08c379a000000000000000000000000000000000000000000000000000000000815260040161102e90612323565b60405180910390fd5b6000611042846117e1565b90508060030160149054906101000a900460ff1615611096576040517f08c379a000000000000000000000000000000000000000000000000000000000815260040161108d906122e3565b60405180910390fd5b3373ffffffffffffffffffffffffffffffffffffffff168160030160009054906101000a900473ffffffffffffffffffffffffffffffffffffffff1673ffffffffffffffffffffffffffffffffffffffff161415611129576040517f08c379a0000000000000000000000000000000000000000000000000000000008152600401611120906122c3565b60405180910390fd5b3481600201541461116f576040517f08c379a000000000000000000000000000000000000000000000000000000000815260040161116690612303565b60405180910390fd5b60008160020154905060006064600454606461118b919061259f565b836111969190612545565b6111a09190612514565b90508260030160009054906101000a900473ffffffffffffffffffffffffffffffffffffffff1673ffffffffffffffffffffffffffffffffffffffff166108fc829081150290604051600060405180830381858888f1935050505015801561120c573d6000803e3d6000fd5b50338360040160006101000a81548173ffffffffffffffffffffffffffffffffffffffff021916908373ffffffffffffffffffffffffffffffffffffffff16021790555060018360030160146101000a81548160ff0219169083151502179055507f8bd7d0c83734e824c3dfee1684c55701de14f992630786becf3b4be84076219a8360405161129c91906123a5565b60405180910390a1505050505050565b6112b4610e8b565b6112f3576040517f08c379a00000000000000000000000000000000000000000000000000000000081526004016112ea906122a3565b60405180910390fd5b60006112fe826117e1565b905060018160040160146101000a81548160ff0219169083151502179055507f9f220e877200ea7aef94e7c098510038e565aa31f8d0edd2fad7cefa0a7f17608160405161134c91906123a5565b60405180910390a15050565b600360009054906101000a900473ffffffffffffffffffffffffffffffffffffffff1681565b60606000805b6002805490508110156114b457600281815481106113cb577f4e487b7100000000000000000000000000000000000000000000000000000000600052603260045260246000fd5b906000526020600020906005020160040160149054906101000a900460ff1615801561148d57503373ffffffffffffffffffffffffffffffffffffffff1660028281548110611443577f4e487b7100000000000000000000000000000000000000000000000000000000600052603260045260246000fd5b906000526020600020906005020160030160009054906101000a900473ffffffffffffffffffffffffffffffffffffffff1673ffffffffffffffffffffffffffffffffffffffff16145b156114a157818061149d90612760565b9250505b80806114ac90612760565b915050611384565b5060008167ffffffffffffffff8111156114f7577f4e487b7100000000000000000000000000000000000000000000000000000000600052604160045260246000fd5b60405190808252806020026020018201604052801561153057816020015b61151d611934565b8152602001906001900390816115155790505b50905061153b611934565b6000805b6002805490508110156117d65760028181548110611586577f4e487b7100000000000000000000000000000000000000000000000000000000600052603260045260246000fd5b90600052602060002090600502016040518060e0016040529081600082015481526020016001820180546115b9906126c6565b80601f01602080910402602001604051908101604052809291908181526020018280546115e5906126c6565b80156116325780601f1061160757610100808354040283529160200191611632565b820191906000526020600020905b81548152906001019060200180831161161557829003601f168201915b50505050508152602001600282015481526020016003820160009054906101000a900473ffffffffffffffffffffffffffffffffffffffff1673ffffffffffffffffffffffffffffffffffffffff1673ffffffffffffffffffffffffffffffffffffffff1681526020016003820160149054906101000a900460ff161515151581526020016004820160009054906101000a900473ffffffffffffffffffffffffffffffffffffffff1673ffffffffffffffffffffffffffffffffffffffff1673ffffffffffffffffffffffffffffffffffffffff1681526020016004820160149054906101000a900460ff16151515158152505092508260c0015115801561176a57503373ffffffffffffffffffffffffffffffffffffffff16836060015173ffffffffffffffffffffffffffffffffffffffff16145b156117c357828483815181106117a9577f4e487b7100000000000000000000000000000000000000000000000000000000600052603260045260246000fd5b602002602001018190525081806117bf90612760565b9250505b80806117ce90612760565b91505061153f565b508294505050505090565b600081600080548210158015611808575060028054905060005461180591906124be565b82105b90508061184a576040517f08c379a000000000000000000000000000000000000000000000000000000000815260040161184190612283565b60405180910390fd5b600060026000548661185c919061259f565b81548110611893577f4e487b7100000000000000000000000000000000000000000000000000000000600052603260045260246000fd5b90600052602060002090600502019050809350505050919050565b8280546118ba906126c6565b90600052602060002090601f0160209004810192826118dc5760008555611923565b82601f106118f557805160ff1916838001178555611923565b82800160010185558215611923579182015b82811115611922578251825591602001919060010190611907565b5b50905061193091906119a1565b5090565b6040518060e00160405280600081526020016060815260200160008152602001600073ffffffffffffffffffffffffffffffffffffffff168152602001600015158152602001600073ffffffffffffffffffffffffffffffffffffffff1681526020016000151581525090565b5b808211156119ba5760008160009055506001016119a2565b5090565b60006119d16119cc84612413565b6123e2565b9050828152602081018484840111156119e957600080fd5b6119f4848285612684565b509392505050565b600082601f830112611a0d57600080fd5b8135611a1d8482602086016119be565b91505092915050565b600081359050611a3581612890565b92915050565b60008060408385031215611a4e57600080fd5b600083013567ffffffffffffffff811115611a6857600080fd5b611a74858286016119fc565b9250506020611a8585828601611a26565b9150509250929050565b600060208284031215611aa157600080fd5b6000611aaf84828501611a26565b91505092915050565b600080600060608486031215611acd57600080fd5b6000611adb86828701611a26565b935050602084013567ffffffffffffffff811115611af857600080fd5b611b04868287016119fc565b9250506040611b1586828701611a26565b9150509250925092565b6000611b2b8383611fc4565b905092915050565b611b3c8161263c565b82525050565b611b4b8161262a565b82525050565b611b5a8161262a565b82525050565b6000611b6b82612468565b611b75818561248b565b935083602082028501611b8785612443565b8060005b85811015611bc35784840389528151611ba48582611b1f565b9450611baf8361247e565b925060208a01995050600181019050611b8b565b50829750879550505050505092915050565b611bde8161264e565b82525050565b611bed8161264e565b82525050565b6000611bfe82612473565b611c08818561249c565b9350611c18818560208601612693565b611c2181612865565b840191505092915050565b60008154611c39816126c6565b611c43818661249c565b94506001821660008114611c5e5760018114611c7057611ca3565b60ff1983168652602086019350611ca3565b611c7985612453565b60005b83811015611c9b57815481890152600182019150602081019050611c7c565b808801955050505b50505092915050565b6000611cb96025836124ad565b91507f4f4e4c59204f574e4552204f4620412050524f445543542043414e205550444160008301527f54452049540000000000000000000000000000000000000000000000000000006020830152604082019050919050565b6000611d1f601d836124ad565b91507f454d505459204445534352495054494f4e204e4f5420414c4c4f5745440000006000830152602082019050919050565b6000611d5f6011836124ad565b91507f56414c49442049442045585045435445440000000000000000000000000000006000830152602082019050919050565b6000611d9f6016836124ad565b91507f4f4e4c592041444d494e2043414e20444f2054484953000000000000000000006000830152602082019050919050565b6000611ddf6020836124ad565b91507f4f574e4552204f4620412050524f445543542043414e4e4f54204255592049546000830152602082019050919050565b6000611e1f6019836124ad565b91507f43414e4e4f5420425559204120534f4c442050524f44554354000000000000006000830152602082019050919050565b6000611e5f601d836124ad565b91507f494e56414c49442050524943452056414c5545205350454349464945440000006000830152602082019050919050565b6000611e9f6029836124ad565b91507f43414e4e4f5420455843454544204d4158494d554d20425559494e475320504560008301527f52204144445245535300000000000000000000000000000000000000000000006020830152604082019050919050565b6000611f056024836124ad565b91507f50524943452053484f554c4420424520494e205448452052414e47452044454660008301527f494e4544000000000000000000000000000000000000000000000000000000006020830152604082019050919050565b6000611f6b602a836124ad565b91507f43414e4e4f5420455843454544204d4158494d554d2050524f4455435453205060008301527f45522041444452455353000000000000000000000000000000000000000000006020830152604082019050919050565b600060e083016000830151611fdc60008601826121cd565b5060208301518482036020860152611ff48282611bf3565b915050604083015161200960408601826121cd565b50606083015161201c6060860182611b33565b50608083015161202f6080860182611bd5565b5060a083015161204260a0860182611b42565b5060c083015161205560c0860182611bd5565b508091505092915050565b600060e08301600083015161207860008601826121cd565b50602083015184820360208601526120908282611bf3565b91505060408301516120a560408601826121cd565b5060608301516120b86060860182611b33565b5060808301516120cb6080860182611bd5565b5060a08301516120de60a0860182611b42565b5060c08301516120f160c0860182611bd5565b508091505092915050565b600060e0830160008084015490506121138161272c565b61212060008701826121cd565b506001840185830360208701526121378382611c2c565b9250506002840154905061214a8161272c565b61215760408701826121cd565b506003840154905061216881612712565b6121756060870182611b33565b5061217f81612746565b61218c6080870182611bd5565b506004840154905061219d816126f8565b6121aa60a0870182611b42565b506121b481612746565b6121c160c0870182611bd5565b50819250505092915050565b6121d68161267a565b82525050565b6121e58161267a565b82525050565b60006020820190506122006000830184611b51565b92915050565b600060208201905081810360008301526122208184611b60565b905092915050565b600060208201905061223d6000830184611be4565b92915050565b6000602082019050818103600083015261225c81611cac565b9050919050565b6000602082019050818103600083015261227c81611d12565b9050919050565b6000602082019050818103600083015261229c81611d52565b9050919050565b600060208201905081810360008301526122bc81611d92565b9050919050565b600060208201905081810360008301526122dc81611dd2565b9050919050565b600060208201905081810360008301526122fc81611e12565b9050919050565b6000602082019050818103600083015261231c81611e52565b9050919050565b6000602082019050818103600083015261233c81611e92565b9050919050565b6000602082019050818103600083015261235c81611ef8565b9050919050565b6000602082019050818103600083015261237c81611f5e565b9050919050565b6000602082019050818103600083015261239d8184612060565b905092915050565b600060208201905081810360008301526123bf81846120fc565b905092915050565b60006020820190506123dc60008301846121dc565b92915050565b6000604051905081810181811067ffffffffffffffff8211171561240957612408612836565b5b8060405250919050565b600067ffffffffffffffff82111561242e5761242d612836565b5b601f19601f8301169050602081019050919050565b6000819050602082019050919050565b60008190508160005260206000209050919050565b600081519050919050565b600081519050919050565b6000602082019050919050565b600082825260208201905092915050565b600082825260208201905092915050565b600082825260208201905092915050565b60006124c98261267a565b91506124d48361267a565b9250827fffffffffffffffffffffffffffffffffffffffffffffffffffffffffffffffff03821115612509576125086127a9565b5b828201905092915050565b600061251f8261267a565b915061252a8361267a565b92508261253a576125396127d8565b5b828204905092915050565b60006125508261267a565b915061255b8361267a565b9250817fffffffffffffffffffffffffffffffffffffffffffffffffffffffffffffffff0483118215151615612594576125936127a9565b5b828202905092915050565b60006125aa8261267a565b91506125b58361267a565b9250828210156125c8576125c76127a9565b5b828203905092915050565b600073ffffffffffffffffffffffffffffffffffffffff82169050919050565b600073ffffffffffffffffffffffffffffffffffffffff82169050919050565b600060ff82169050919050565b6000819050919050565b60006126358261265a565b9050919050565b60006126478261265a565b9050919050565b60008115159050919050565b600073ffffffffffffffffffffffffffffffffffffffff82169050919050565b6000819050919050565b82818337600083830152505050565b60005b838110156126b1578082015181840152602081019050612696565b838111156126c0576000848401525b50505050565b600060028204905060018216806126de57607f821691505b602082108114156126f2576126f1612807565b5b50919050565b600061270b61270683612876565b6125d3565b9050919050565b600061272561272083612876565b6125f3565b9050919050565b600061273f61273a83612876565b612620565b9050919050565b600061275961275483612883565b612613565b9050919050565b600061276b8261267a565b91507fffffffffffffffffffffffffffffffffffffffffffffffffffffffffffffffff82141561279e5761279d6127a9565b5b600182019050919050565b7f4e487b7100000000000000000000000000000000000000000000000000000000600052601160045260246000fd5b7f4e487b7100000000000000000000000000000000000000000000000000000000600052601260045260246000fd5b7f4e487b7100000000000000000000000000000000000000000000000000000000600052602260045260246000fd5b7f4e487b7100000000000000000000000000000000000000000000000000000000600052604160045260246000fd5b6000601f19601f8301169050919050565b60008160001c9050919050565b60008160a01c9050919050565b6128998161267a565b81146128a457600080fd5b5056fea2646970667358221220b5464f79058216c0c2a4144ab2a48a250d208c61f38a55f26051751e9fe10ad064736f6c63430008000033",
  "immutableReferences": {},
  "source": "// SPDX-License-Identifier: GPL-3.0\r\npragma solidity ^0.8.0;\r\n\r\ncontract DStore {\r\n\r\n    struct Product {\r\n        uint id;\r\n        string description;\r\n        uint price;\r\n        address payable owner;\r\n        bool sold;\r\n        address soldTo;\r\n        bool deleted;\r\n    }\r\n\r\n    event Added(Product product);\r\n    event Deleted(Product product);\r\n    event Sold(Product product);\r\n    event Updated(Product product);\r\n\r\n    uint startId;\r\n    uint curId;\r\n    Product[] array;\r\n    address public admin;\r\n    uint tollPercent;\r\n\r\n    uint minPrice;\r\n    uint maxPrice;\r\n    \r\n    uint maxAddPerAddress;\r\n    uint maxBuyPerAddress;\r\n\r\n    constructor(uint _minPrice,uint _maxPrice,uint _tollPercent,\r\n        uint _maxAddPerAddress,uint _maxBuyPerAddress,uint _startId){\r\n    \r\n        minPrice=_minPrice;\r\n        maxPrice=_maxPrice;\r\n        startId=_startId;\r\n        curId = startId;\r\n        tollPercent=_tollPercent;\r\n        maxAddPerAddress=_maxAddPerAddress;\r\n        maxBuyPerAddress=_maxBuyPerAddress;\r\n\r\n        admin=msg.sender;\r\n    }\r\n\r\n    modifier expectsValidId(uint id){\r\n        \r\n        bool validId=id>=startId && id<startId+array.length;\r\n        require(validId,\"VALID ID EXPECTED\");\r\n        _;\r\n    }\r\n\r\n    modifier expectsAdmin(){\r\n        require(isAdmin(),\"ONLY ADMIN CAN DO THIS\");\r\n        _;\r\n    }\r\n\r\n    function isAdmin() public view returns (bool) {\r\n        return msg.sender==admin;\r\n    }\r\n\r\n    function getAdmin() public view returns (address) {\r\n        return admin;\r\n    }\r\n\r\n    modifier expectsValidProperties(string memory desc, uint price){\r\n        \r\n        bytes memory descBytes = bytes(desc);\r\n        require(descBytes.length>0,\"EMPTY DESCRIPTION NOT ALLOWED\");\r\n\r\n        require(price>=minPrice*(1 ether) && price<=maxPrice*(1 ether),\r\n            \"PRICE SHOULD BE IN THE RANGE DEFINED\");\r\n        _;\r\n    }\r\n\r\n    modifier checkMaximumAddedFromAddress(){\r\n        \r\n        uint count=0;\r\n        Product storage p;\r\n        for (uint i = 0; i < array.length; i++) {\r\n            p=array[i];\r\n            if(!p.deleted && p.owner==msg.sender){\r\n                count++;\r\n            }\r\n        }\r\n        require(count<maxAddPerAddress,\"CANNOT EXCEED MAXIMUM PRODUCTS PER ADDRESS\");\r\n        _;\r\n    }\r\n\r\n    modifier checkMaximumBuyingFromAddress(){\r\n        \r\n        uint count=0;\r\n        Product storage p;\r\n        for (uint i = 0; i < array.length; i++) {\r\n            p=array[i];\r\n            if(!p.deleted && p.sold && p.soldTo==msg.sender){\r\n                count++;\r\n            }\r\n        }\r\n        require(count<maxBuyPerAddress,\"CANNOT EXCEED MAXIMUM BUYINGS PER ADDRESS\");\r\n        _;\r\n    }\r\n\r\n    function getAll() public view returns (Product[] memory) {\r\n        uint effectiveCount=0;\r\n        for (uint i = 0; i < array.length; i++) {\r\n            if(!array[i].deleted){\r\n                effectiveCount++;\r\n            }\r\n        }\r\n\r\n        Product[] memory col=new Product[](effectiveCount);\r\n        Product memory p;\r\n        uint j=0;\r\n        for (uint i = 0; i < array.length; i++) {\r\n            p=array[i];\r\n            if(!p.deleted){\r\n                col[j]=p;\r\n                j++;\r\n            }\r\n        }\r\n        return col;\r\n    }\r\n    \r\n    function getMyProducts() public view returns (Product[] memory) {\r\n        \r\n        uint count=0;\r\n        for (uint i = 0; i < array.length; i++) {\r\n            if(!array[i].deleted && array[i].owner==msg.sender){\r\n                count++;\r\n            }\r\n        }\r\n\r\n        Product[] memory col=new Product[](count);\r\n        Product memory p;\r\n        uint j=0;\r\n        for (uint i = 0; i < array.length; i++) {\r\n            p=array[i];\r\n            if(!p.deleted && p.owner==msg.sender){\r\n                col[j]=p;\r\n                j++;\r\n            }\r\n        }\r\n        return col;\r\n    }\r\n\r\n    function add(string memory desc, uint price) public  \r\n        expectsValidProperties(desc, price)\r\n        checkMaximumAddedFromAddress(){\r\n\r\n        Product memory p=Product(curId, desc, price, payable(msg.sender), false,address(0),false);\r\n\r\n        array.push(p);\r\n\r\n        curId++;\r\n\r\n        emit Added(p);\r\n    }\r\n\r\n    function update(uint id, string memory desc, uint price) public  \r\n        expectsValidProperties(desc, price){\r\n\r\n        Product storage p=find(id);\r\n\r\n        require(p.owner==msg.sender,\"ONLY OWNER OF A PRODUCT CAN UPDATE IT\");\r\n\r\n        p.description=desc;\r\n        p.price=price;\r\n        \r\n        emit Updated(p);\r\n    }\r\n\r\n   function get(uint id) public view expectsValidId(id) returns(Product memory) {\r\n       \r\n       Product memory p=array[id-startId];\r\n       return p; \r\n   }\r\n\r\n   function find(uint id) private view expectsValidId(id) returns(Product storage) {\r\n       \r\n       Product storage p=array[id-startId];\r\n       return p; \r\n   }\r\n\r\n   function deleteProduct(uint id) public expectsAdmin {\r\n       Product storage p=find(id);\r\n       p.deleted=true;\r\n\r\n       emit Deleted(p);\r\n   }\r\n\r\n   function canDelete() public view returns(bool) {\r\n       return isAdmin();\r\n   }\r\n\r\n   function buy(uint id) public payable checkMaximumBuyingFromAddress() {\r\n\r\n        Product storage p=find(id);\r\n\r\n        require(!p.sold,\"CANNOT BUY A SOLD PRODUCT\");\r\n        require(p.owner!=msg.sender,\"OWNER OF A PRODUCT CANNOT BUY IT\");\r\n        require(p.price==msg.value,\"INVALID PRICE VALUE SPECIFIED\");\r\n\r\n        uint price=p.price;\r\n\r\n        uint ownerGain=price*(100-tollPercent)/100;\r\n\r\n        p.owner.transfer(ownerGain);\r\n\r\n        //not needed(& doesn't work this way); it's done automatically \r\n        //uint contractGain=price*tollPercent/100;\r\n        //payable(address(this)).transfer(contractGain);\r\n        \r\n        p.soldTo=msg.sender;\r\n        p.sold=true;\r\n\r\n        emit Sold(p);\r\n    }\r\n\r\n   function getContractBalance() public view returns(uint) {\r\n       return address(this).balance;\r\n   }\r\n}",
  "sourcePath": "D:\\_LEARN\\Blockchain\\_JALASAT\\final\\Back\\contracts\\DStore.sol",
  "compiler": {
    "name": "solc",
    "version": "0.8.0+commit.c7dfd78e.Emscripten.clang"
  },
  "schemaVersion": "3.4.2",
  "updatedAt": "2021-10-24T15:23:34.617Z",
  "networkType": "ethereum",
  "devdoc": {
    "kind": "dev",
    "methods": {},
    "version": 1
  },
  "userdoc": {
    "kind": "user",
    "methods": {},
    "version": 1
  }
}