{
  "contractName": "DStore",
  "abi": [
    {
      "inputs": [
        {
          "internalType": "uint256",
          "name": "_tollPercent",
          "type": "uint256"
        },
        {
          "internalType": "uint256",
          "name": "_startId",
          "type": "uint256"
        }
      ],
      "stateMutability": "nonpayable",
      "type": "constructor"
    },
    {
      "anonymous": false,
      "inputs": [
        {
          "components": [
            {
              "internalType": "uint256",
              "name": "id",
              "type": "uint256"
            },
            {
              "internalType": "string",
              "name": "description",
              "type": "string"
            },
            {
              "internalType": "uint256",
              "name": "price",
              "type": "uint256"
            },
            {
              "internalType": "address payable",
              "name": "owner",
              "type": "address"
            },
            {
              "internalType": "bool",
              "name": "sold",
              "type": "bool"
            },
            {
              "internalType": "address",
              "name": "soldTo",
              "type": "address"
            },
            {
              "internalType": "bool",
              "name": "deleted",
              "type": "bool"
            }
          ],
          "indexed": false,
          "internalType": "struct DStore.Product",
          "name": "product",
          "type": "tuple"
        }
      ],
      "name": "Added",
      "type": "event"
    },
    {
      "anonymous": false,
      "inputs": [
        {
          "components": [
            {
              "internalType": "uint256",
              "name": "id",
              "type": "uint256"
            },
            {
              "internalType": "string",
              "name": "description",
              "type": "string"
            },
            {
              "internalType": "uint256",
              "name": "price",
              "type": "uint256"
            },
            {
              "internalType": "address payable",
              "name": "owner",
              "type": "address"
            },
            {
              "internalType": "bool",
              "name": "sold",
              "type": "bool"
            },
            {
              "internalType": "address",
              "name": "soldTo",
              "type": "address"
            },
            {
              "internalType": "bool",
              "name": "deleted",
              "type": "bool"
            }
          ],
          "indexed": false,
          "internalType": "struct DStore.Product",
          "name": "product",
          "type": "tuple"
        }
      ],
      "name": "Deleted",
      "type": "event"
    },
    {
      "anonymous": false,
      "inputs": [
        {
          "components": [
            {
              "internalType": "uint256",
              "name": "id",
              "type": "uint256"
            },
            {
              "internalType": "string",
              "name": "description",
              "type": "string"
            },
            {
              "internalType": "uint256",
              "name": "price",
              "type": "uint256"
            },
            {
              "internalType": "address payable",
              "name": "owner",
              "type": "address"
            },
            {
              "internalType": "bool",
              "name": "sold",
              "type": "bool"
            },
            {
              "internalType": "address",
              "name": "soldTo",
              "type": "address"
            },
            {
              "internalType": "bool",
              "name": "deleted",
              "type": "bool"
            }
          ],
          "indexed": false,
          "internalType": "struct DStore.Product",
          "name": "product",
          "type": "tuple"
        }
      ],
      "name": "Edited",
      "type": "event"
    },
    {
      "anonymous": false,
      "inputs": [
        {
          "components": [
            {
              "internalType": "uint256",
              "name": "id",
              "type": "uint256"
            },
            {
              "internalType": "string",
              "name": "description",
              "type": "string"
            },
            {
              "internalType": "uint256",
              "name": "price",
              "type": "uint256"
            },
            {
              "internalType": "address payable",
              "name": "owner",
              "type": "address"
            },
            {
              "internalType": "bool",
              "name": "sold",
              "type": "bool"
            },
            {
              "internalType": "address",
              "name": "soldTo",
              "type": "address"
            },
            {
              "internalType": "bool",
              "name": "deleted",
              "type": "bool"
            }
          ],
          "indexed": false,
          "internalType": "struct DStore.Product",
          "name": "product",
          "type": "tuple"
        }
      ],
      "name": "Sold",
      "type": "event"
    },
    {
      "inputs": [],
      "name": "admin",
      "outputs": [
        {
          "internalType": "address",
          "name": "",
          "type": "address"
        }
      ],
      "stateMutability": "view",
      "type": "function",
      "constant": true
    },
    {
      "inputs": [],
      "name": "isAdmin",
      "outputs": [
        {
          "internalType": "bool",
          "name": "",
          "type": "bool"
        }
      ],
      "stateMutability": "view",
      "type": "function",
      "constant": true
    },
    {
      "inputs": [],
      "name": "getAdmin",
      "outputs": [
        {
          "internalType": "address",
          "name": "",
          "type": "address"
        }
      ],
      "stateMutability": "view",
      "type": "function",
      "constant": true
    },
    {
      "inputs": [],
      "name": "getAll",
      "outputs": [
        {
          "components": [
            {
              "internalType": "uint256",
              "name": "id",
              "type": "uint256"
            },
            {
              "internalType": "string",
              "name": "description",
              "type": "string"
            },
            {
              "internalType": "uint256",
              "name": "price",
              "type": "uint256"
            },
            {
              "internalType": "address payable",
              "name": "owner",
              "type": "address"
            },
            {
              "internalType": "bool",
              "name": "sold",
              "type": "bool"
            },
            {
              "internalType": "address",
              "name": "soldTo",
              "type": "address"
            },
            {
              "internalType": "bool",
              "name": "deleted",
              "type": "bool"
            }
          ],
          "internalType": "struct DStore.Product[]",
          "name": "",
          "type": "tuple[]"
        }
      ],
      "stateMutability": "view",
      "type": "function",
      "constant": true
    },
    {
      "inputs": [],
      "name": "getMyProducts",
      "outputs": [
        {
          "components": [
            {
              "internalType": "uint256",
              "name": "id",
              "type": "uint256"
            },
            {
              "internalType": "string",
              "name": "description",
              "type": "string"
            },
            {
              "internalType": "uint256",
              "name": "price",
              "type": "uint256"
            },
            {
              "internalType": "address payable",
              "name": "owner",
              "type": "address"
            },
            {
              "internalType": "bool",
              "name": "sold",
              "type": "bool"
            },
            {
              "internalType": "address",
              "name": "soldTo",
              "type": "address"
            },
            {
              "internalType": "bool",
              "name": "deleted",
              "type": "bool"
            }
          ],
          "internalType": "struct DStore.Product[]",
          "name": "",
          "type": "tuple[]"
        }
      ],
      "stateMutability": "view",
      "type": "function",
      "constant": true
    },
    {
      "inputs": [
        {
          "internalType": "string",
          "name": "desc",
          "type": "string"
        },
        {
          "internalType": "uint256",
          "name": "price",
          "type": "uint256"
        }
      ],
      "name": "add",
      "outputs": [],
      "stateMutability": "nonpayable",
      "type": "function"
    },
    {
      "inputs": [
        {
          "internalType": "uint256",
          "name": "id",
          "type": "uint256"
        },
        {
          "internalType": "string",
          "name": "desc",
          "type": "string"
        },
        {
          "internalType": "uint256",
          "name": "price",
          "type": "uint256"
        }
      ],
      "name": "edit",
      "outputs": [],
      "stateMutability": "nonpayable",
      "type": "function"
    },
    {
      "inputs": [
        {
          "internalType": "uint256",
          "name": "id",
          "type": "uint256"
        }
      ],
      "name": "deleteProduct",
      "outputs": [],
      "stateMutability": "nonpayable",
      "type": "function"
    },
    {
      "inputs": [],
      "name": "canDelete",
      "outputs": [
        {
          "internalType": "bool",
          "name": "",
          "type": "bool"
        }
      ],
      "stateMutability": "view",
      "type": "function",
      "constant": true
    },
    {
      "inputs": [
        {
          "internalType": "uint256",
          "name": "id",
          "type": "uint256"
        }
      ],
      "name": "buy",
      "outputs": [],
      "stateMutability": "payable",
      "type": "function",
      "payable": true
    },
    {
      "inputs": [],
      "name": "getContractBalance",
      "outputs": [
        {
          "internalType": "uint256",
          "name": "",
          "type": "uint256"
        }
      ],
      "stateMutability": "view",
      "type": "function",
      "constant": true
    }
  ],
  "bytecode": "0x60806040523480156200001157600080fd5b506040516200271e3803806200271e8339818101604052810190620000379190620000ae565b8060008190555060005460018190555033600360006101000a81548173ffffffffffffffffffffffffffffffffffffffff021916908373ffffffffffffffffffffffffffffffffffffffff16021790555081600481905550505062000113565b600081519050620000a881620000f9565b92915050565b60008060408385031215620000c257600080fd5b6000620000d28582860162000097565b9250506020620000e58582860162000097565b9150509250929050565b6000819050919050565b6200010481620000ef565b81146200011057600080fd5b50565b6125fb80620001236000396000f3fe60806040526004361061009c5760003560e01c80636f9fb98a116100645780636f9fb98a14610174578063b6db75a01461019f578063d96a094a146101ca578063ed90c7b7146101e6578063f851a4401461020f578063fdca4ca31461023a5761009c565b8063246b80cf146100a157806336555b85146100cc57806353ed5143146100f557806369d1698f146101205780636e9960c314610149575b600080fd5b3480156100ad57600080fd5b506100b6610265565b6040516100c39190611f46565b60405180910390f35b3480156100d857600080fd5b506100f360048036038101906100ee9190611759565b610274565b005b34801561010157600080fd5b5061010a61064a565b6040516101179190611f24565b60405180910390f35b34801561012c57600080fd5b50610147600480360381019061014291906117d6565b6109cc565b005b34801561015557600080fd5b5061015e610b77565b60405161016b9190611f09565b60405180910390f35b34801561018057600080fd5b50610189610ba1565b60405161019691906120e5565b60405180910390f35b3480156101ab57600080fd5b506101b4610ba9565b6040516101c19190611f46565b60405180910390f35b6101e460048036038101906101df91906117ad565b610c01565b005b3480156101f257600080fd5b5061020d600480360381019061020891906117ad565b610fca565b005b34801561021b57600080fd5b50610224611076565b6040516102319190611f09565b60405180910390f35b34801561024657600080fd5b5061024f61109c565b60405161025c9190611f24565b60405180910390f35b600061026f610ba9565b905090565b8181600082905060008151116102bf576040517f08c379a00000000000000000000000000000000000000000000000000000000081526004016102b690611f81565b60405180910390fd5b670de0b6b3a764000082101580156102df5750678ac7230489e800008211155b61031e576040517f08c379a000000000000000000000000000000000000000000000000000000000815260040161031590612061565b60405180910390fd5b60008080600090505b600280549050811015610413576002818154811061036e577f4e487b7100000000000000000000000000000000000000000000000000000000600052603260045260246000fd5b906000526020600020906005020191508160040160149054906101000a900460ff161580156103ec57503373ffffffffffffffffffffffffffffffffffffffff168260030160009054906101000a900473ffffffffffffffffffffffffffffffffffffffff1673ffffffffffffffffffffffffffffffffffffffff16145b156104005782806103fc9061247e565b9350505b808061040b9061247e565b915050610327565b506001821115610458576040517f08c379a000000000000000000000000000000000000000000000000000000000815260040161044f90612001565b60405180910390fd5b60006040518060e0016040528060015481526020018981526020018881526020013373ffffffffffffffffffffffffffffffffffffffff168152602001600015158152602001600073ffffffffffffffffffffffffffffffffffffffff16815260200160001515815250905060028190806001815401808255809150506001900390600052602060002090600502016000909190919091506000820151816000015560208201518160010190805190602001906105169291906115cc565b506040820151816002015560608201518160030160006101000a81548173ffffffffffffffffffffffffffffffffffffffff021916908373ffffffffffffffffffffffffffffffffffffffff16021790555060808201518160030160146101000a81548160ff02191690831515021790555060a08201518160040160006101000a81548173ffffffffffffffffffffffffffffffffffffffff021916908373ffffffffffffffffffffffffffffffffffffffff16021790555060c08201518160040160146101000a81548160ff0219169083151502179055505050600160008154809291906106049061247e565b91905055507fd1ecc316511450ffd030c08b1e327c1f3da3f423046b88ff15a519c25e160e0a8160405161063891906120a1565b60405180910390a15050505050505050565b60606000805b6002805490508110156106dc5760028181548110610697577f4e487b7100000000000000000000000000000000000000000000000000000000600052603260045260246000fd5b906000526020600020906005020160040160149054906101000a900460ff166106c95781806106c59061247e565b9250505b80806106d49061247e565b915050610650565b5060008167ffffffffffffffff81111561071f577f4e487b7100000000000000000000000000000000000000000000000000000000600052604160045260246000fd5b60405190808252806020026020018201604052801561075857816020015b610745611652565b81526020019060019003908161073d5790505b509050610763611652565b6000805b6002805490508110156109c157600281815481106107ae577f4e487b7100000000000000000000000000000000000000000000000000000000600052603260045260246000fd5b90600052602060002090600502016040518060e0016040529081600082015481526020016001820180546107e1906123e4565b80601f016020809104026020016040519081016040528092919081815260200182805461080d906123e4565b801561085a5780601f1061082f5761010080835404028352916020019161085a565b820191906000526020600020905b81548152906001019060200180831161083d57829003601f168201915b50505050508152602001600282015481526020016003820160009054906101000a900473ffffffffffffffffffffffffffffffffffffffff1673ffffffffffffffffffffffffffffffffffffffff1673ffffffffffffffffffffffffffffffffffffffff1681526020016003820160149054906101000a900460ff161515151581526020016004820160009054906101000a900473ffffffffffffffffffffffffffffffffffffffff1673ffffffffffffffffffffffffffffffffffffffff1673ffffffffffffffffffffffffffffffffffffffff1681526020016004820160149054906101000a900460ff16151515158152505092508260c001516109ae5782848381518110610994577f4e487b7100000000000000000000000000000000000000000000000000000000600052603260045260246000fd5b602002602001018190525081806109aa9061247e565b9250505b80806109b99061247e565b915050610767565b508294505050505090565b818160008290506000815111610a17576040517f08c379a0000000000000000000000000000000000000000000000000000000008152600401610a0e90611f81565b60405180910390fd5b670de0b6b3a76400008210158015610a375750678ac7230489e800008211155b610a76576040517f08c379a0000000000000000000000000000000000000000000000000000000008152600401610a6d90612061565b60405180910390fd5b6000610a81876114ff565b90503373ffffffffffffffffffffffffffffffffffffffff168160030160009054906101000a900473ffffffffffffffffffffffffffffffffffffffff1673ffffffffffffffffffffffffffffffffffffffff1614610b15576040517f08c379a0000000000000000000000000000000000000000000000000000000008152600401610b0c90611f61565b60405180910390fd5b85816001019080519060200190610b2d9291906115cc565b508481600201819055507f8839b939e19ef445b378ac3476ffb334ddedc998209f425baad19d577f6b92ea81604051610b6691906120c3565b60405180910390a150505050505050565b6000600360009054906101000a900473ffffffffffffffffffffffffffffffffffffffff16905090565b600047905090565b6000600360009054906101000a900473ffffffffffffffffffffffffffffffffffffffff1673ffffffffffffffffffffffffffffffffffffffff163373ffffffffffffffffffffffffffffffffffffffff1614905090565b60008080600090505b600280549050811015610d105760028181548110610c51577f4e487b7100000000000000000000000000000000000000000000000000000000600052603260045260246000fd5b906000526020600020906005020191508160040160149054906101000a900460ff16158015610c8e57508160030160149054906101000a900460ff165b8015610ce957503373ffffffffffffffffffffffffffffffffffffffff168260040160009054906101000a900473ffffffffffffffffffffffffffffffffffffffff1673ffffffffffffffffffffffffffffffffffffffff16145b15610cfd578280610cf99061247e565b9350505b8080610d089061247e565b915050610c0a565b506001821115610d55576040517f08c379a0000000000000000000000000000000000000000000000000000000008152600401610d4c90612081565b60405180910390fd5b6000610d60846114ff565b90508060030160149054906101000a900460ff1615610db4576040517f08c379a0000000000000000000000000000000000000000000000000000000008152600401610dab90612021565b60405180910390fd5b3373ffffffffffffffffffffffffffffffffffffffff168160030160009054906101000a900473ffffffffffffffffffffffffffffffffffffffff1673ffffffffffffffffffffffffffffffffffffffff161415610e47576040517f08c379a0000000000000000000000000000000000000000000000000000000008152600401610e3e90611fe1565b60405180910390fd5b34816002015414610e8d576040517f08c379a0000000000000000000000000000000000000000000000000000000008152600401610e8490612041565b60405180910390fd5b600081600201549050600060646004546064610ea991906122bd565b83610eb49190612263565b610ebe9190612232565b90508260030160009054906101000a900473ffffffffffffffffffffffffffffffffffffffff1673ffffffffffffffffffffffffffffffffffffffff166108fc829081150290604051600060405180830381858888f19350505050158015610f2a573d6000803e3d6000fd5b50338360040160006101000a81548173ffffffffffffffffffffffffffffffffffffffff021916908373ffffffffffffffffffffffffffffffffffffffff16021790555060018360030160146101000a81548160ff0219169083151502179055507f8bd7d0c83734e824c3dfee1684c55701de14f992630786becf3b4be84076219a83604051610fba91906120c3565b60405180910390a1505050505050565b610fd2610ba9565b611011576040517f08c379a000000000000000000000000000000000000000000000000000000000815260040161100890611fc1565b60405180910390fd5b600061101c826114ff565b905060018160040160146101000a81548160ff0219169083151502179055507f9f220e877200ea7aef94e7c098510038e565aa31f8d0edd2fad7cefa0a7f17608160405161106a91906120c3565b60405180910390a15050565b600360009054906101000a900473ffffffffffffffffffffffffffffffffffffffff1681565b60606000805b6002805490508110156111d257600281815481106110e9577f4e487b7100000000000000000000000000000000000000000000000000000000600052603260045260246000fd5b906000526020600020906005020160040160149054906101000a900460ff161580156111ab57503373ffffffffffffffffffffffffffffffffffffffff1660028281548110611161577f4e487b7100000000000000000000000000000000000000000000000000000000600052603260045260246000fd5b906000526020600020906005020160030160009054906101000a900473ffffffffffffffffffffffffffffffffffffffff1673ffffffffffffffffffffffffffffffffffffffff16145b156111bf5781806111bb9061247e565b9250505b80806111ca9061247e565b9150506110a2565b5060008167ffffffffffffffff811115611215577f4e487b7100000000000000000000000000000000000000000000000000000000600052604160045260246000fd5b60405190808252806020026020018201604052801561124e57816020015b61123b611652565b8152602001906001900390816112335790505b509050611259611652565b6000805b6002805490508110156114f457600281815481106112a4577f4e487b7100000000000000000000000000000000000000000000000000000000600052603260045260246000fd5b90600052602060002090600502016040518060e0016040529081600082015481526020016001820180546112d7906123e4565b80601f0160208091040260200160405190810160405280929190818152602001828054611303906123e4565b80156113505780601f1061132557610100808354040283529160200191611350565b820191906000526020600020905b81548152906001019060200180831161133357829003601f168201915b50505050508152602001600282015481526020016003820160009054906101000a900473ffffffffffffffffffffffffffffffffffffffff1673ffffffffffffffffffffffffffffffffffffffff1673ffffffffffffffffffffffffffffffffffffffff1681526020016003820160149054906101000a900460ff161515151581526020016004820160009054906101000a900473ffffffffffffffffffffffffffffffffffffffff1673ffffffffffffffffffffffffffffffffffffffff1673ffffffffffffffffffffffffffffffffffffffff1681526020016004820160149054906101000a900460ff16151515158152505092508260c0015115801561148857503373ffffffffffffffffffffffffffffffffffffffff16836060015173ffffffffffffffffffffffffffffffffffffffff16145b156114e157828483815181106114c7577f4e487b7100000000000000000000000000000000000000000000000000000000600052603260045260246000fd5b602002602001018190525081806114dd9061247e565b9250505b80806114ec9061247e565b91505061125d565b508294505050505090565b600081600080548210158015611526575060028054905060005461152391906121dc565b82105b905080611568576040517f08c379a000000000000000000000000000000000000000000000000000000000815260040161155f90611fa1565b60405180910390fd5b600060026000548661157a91906122bd565b815481106115b1577f4e487b7100000000000000000000000000000000000000000000000000000000600052603260045260246000fd5b90600052602060002090600502019050809350505050919050565b8280546115d8906123e4565b90600052602060002090601f0160209004810192826115fa5760008555611641565b82601f1061161357805160ff1916838001178555611641565b82800160010185558215611641579182015b82811115611640578251825591602001919060010190611625565b5b50905061164e91906116bf565b5090565b6040518060e00160405280600081526020016060815260200160008152602001600073ffffffffffffffffffffffffffffffffffffffff168152602001600015158152602001600073ffffffffffffffffffffffffffffffffffffffff1681526020016000151581525090565b5b808211156116d85760008160009055506001016116c0565b5090565b60006116ef6116ea84612131565b612100565b90508281526020810184848401111561170757600080fd5b6117128482856123a2565b509392505050565b600082601f83011261172b57600080fd5b813561173b8482602086016116dc565b91505092915050565b600081359050611753816125ae565b92915050565b6000806040838503121561176c57600080fd5b600083013567ffffffffffffffff81111561178657600080fd5b6117928582860161171a565b92505060206117a385828601611744565b9150509250929050565b6000602082840312156117bf57600080fd5b60006117cd84828501611744565b91505092915050565b6000806000606084860312156117eb57600080fd5b60006117f986828701611744565b935050602084013567ffffffffffffffff81111561181657600080fd5b6118228682870161171a565b925050604061183386828701611744565b9150509250925092565b60006118498383611ce2565b905092915050565b61185a8161235a565b82525050565b61186981612348565b82525050565b61187881612348565b82525050565b600061188982612186565b61189381856121a9565b9350836020820285016118a585612161565b8060005b858110156118e157848403895281516118c2858261183d565b94506118cd8361219c565b925060208a019950506001810190506118a9565b50829750879550505050505092915050565b6118fc8161236c565b82525050565b61190b8161236c565b82525050565b600061191c82612191565b61192681856121ba565b93506119368185602086016123b1565b61193f81612583565b840191505092915050565b60008154611957816123e4565b61196181866121ba565b9450600182166000811461197c576001811461198e576119c1565b60ff19831686526020860193506119c1565b61199785612171565b60005b838110156119b95781548189015260018201915060208101905061199a565b808801955050505b50505092915050565b60006119d76023836121cb565b91507f4f4e4c59204f574e4552204f4620412050524f445543542043414e204544495460008301527f20495400000000000000000000000000000000000000000000000000000000006020830152604082019050919050565b6000611a3d601d836121cb565b91507f454d505459204445534352495054494f4e204e4f5420414c4c4f5745440000006000830152602082019050919050565b6000611a7d6011836121cb565b91507f56414c49442049442045585045435445440000000000000000000000000000006000830152602082019050919050565b6000611abd6016836121cb565b91507f4f4e4c592041444d494e2043414e20444f2054484953000000000000000000006000830152602082019050919050565b6000611afd6020836121cb565b91507f4f574e4552204f4620412050524f445543542043414e4e4f54204255592049546000830152602082019050919050565b6000611b3d6031836121cb565b91507f4d4158494d554d2050524f445543545320414c4c4f5745442046524f4d20454160008301527f434820414444524553532049532054574f0000000000000000000000000000006020830152604082019050919050565b6000611ba36019836121cb565b91507f43414e4e4f5420425559204120534f4c442050524f44554354000000000000006000830152602082019050919050565b6000611be3601d836121cb565b91507f494e56414c49442050524943452056414c5545205350454349464945440000006000830152602082019050919050565b6000611c236024836121cb565b91507f50524943452043414e204245204245545745454e203120414e4420313020455460008301527f48455253000000000000000000000000000000000000000000000000000000006020830152604082019050919050565b6000611c896027836121cb565b91507f4d4158494d554d20425559494e472046524f4d2045414348204144445245535360008301527f2049532054574f000000000000000000000000000000000000000000000000006020830152604082019050919050565b600060e083016000830151611cfa6000860182611eeb565b5060208301518482036020860152611d128282611911565b9150506040830151611d276040860182611eeb565b506060830151611d3a6060860182611851565b506080830151611d4d60808601826118f3565b5060a0830151611d6060a0860182611860565b5060c0830151611d7360c08601826118f3565b508091505092915050565b600060e083016000830151611d966000860182611eeb565b5060208301518482036020860152611dae8282611911565b9150506040830151611dc36040860182611eeb565b506060830151611dd66060860182611851565b506080830151611de960808601826118f3565b5060a0830151611dfc60a0860182611860565b5060c0830151611e0f60c08601826118f3565b508091505092915050565b600060e083016000808401549050611e318161244a565b611e3e6000870182611eeb565b50600184018583036020870152611e55838261194a565b92505060028401549050611e688161244a565b611e756040870182611eeb565b5060038401549050611e8681612430565b611e936060870182611851565b50611e9d81612464565b611eaa60808701826118f3565b5060048401549050611ebb81612416565b611ec860a0870182611860565b50611ed281612464565b611edf60c08701826118f3565b50819250505092915050565b611ef481612398565b82525050565b611f0381612398565b82525050565b6000602082019050611f1e600083018461186f565b92915050565b60006020820190508181036000830152611f3e818461187e565b905092915050565b6000602082019050611f5b6000830184611902565b92915050565b60006020820190508181036000830152611f7a816119ca565b9050919050565b60006020820190508181036000830152611f9a81611a30565b9050919050565b60006020820190508181036000830152611fba81611a70565b9050919050565b60006020820190508181036000830152611fda81611ab0565b9050919050565b60006020820190508181036000830152611ffa81611af0565b9050919050565b6000602082019050818103600083015261201a81611b30565b9050919050565b6000602082019050818103600083015261203a81611b96565b9050919050565b6000602082019050818103600083015261205a81611bd6565b9050919050565b6000602082019050818103600083015261207a81611c16565b9050919050565b6000602082019050818103600083015261209a81611c7c565b9050919050565b600060208201905081810360008301526120bb8184611d7e565b905092915050565b600060208201905081810360008301526120dd8184611e1a565b905092915050565b60006020820190506120fa6000830184611efa565b92915050565b6000604051905081810181811067ffffffffffffffff8211171561212757612126612554565b5b8060405250919050565b600067ffffffffffffffff82111561214c5761214b612554565b5b601f19601f8301169050602081019050919050565b6000819050602082019050919050565b60008190508160005260206000209050919050565b600081519050919050565b600081519050919050565b6000602082019050919050565b600082825260208201905092915050565b600082825260208201905092915050565b600082825260208201905092915050565b60006121e782612398565b91506121f283612398565b9250827fffffffffffffffffffffffffffffffffffffffffffffffffffffffffffffffff03821115612227576122266124c7565b5b828201905092915050565b600061223d82612398565b915061224883612398565b925082612258576122576124f6565b5b828204905092915050565b600061226e82612398565b915061227983612398565b9250817fffffffffffffffffffffffffffffffffffffffffffffffffffffffffffffffff04831182151516156122b2576122b16124c7565b5b828202905092915050565b60006122c882612398565b91506122d383612398565b9250828210156122e6576122e56124c7565b5b828203905092915050565b600073ffffffffffffffffffffffffffffffffffffffff82169050919050565b600073ffffffffffffffffffffffffffffffffffffffff82169050919050565b600060ff82169050919050565b6000819050919050565b600061235382612378565b9050919050565b600061236582612378565b9050919050565b60008115159050919050565b600073ffffffffffffffffffffffffffffffffffffffff82169050919050565b6000819050919050565b82818337600083830152505050565b60005b838110156123cf5780820151818401526020810190506123b4565b838111156123de576000848401525b50505050565b600060028204905060018216806123fc57607f821691505b602082108114156124105761240f612525565b5b50919050565b600061242961242483612594565b6122f1565b9050919050565b600061244361243e83612594565b612311565b9050919050565b600061245d61245883612594565b61233e565b9050919050565b6000612477612472836125a1565b612331565b9050919050565b600061248982612398565b91507fffffffffffffffffffffffffffffffffffffffffffffffffffffffffffffffff8214156124bc576124bb6124c7565b5b600182019050919050565b7f4e487b7100000000000000000000000000000000000000000000000000000000600052601160045260246000fd5b7f4e487b7100000000000000000000000000000000000000000000000000000000600052601260045260246000fd5b7f4e487b7100000000000000000000000000000000000000000000000000000000600052602260045260246000fd5b7f4e487b7100000000000000000000000000000000000000000000000000000000600052604160045260246000fd5b6000601f19601f8301169050919050565b60008160001c9050919050565b60008160a01c9050919050565b6125b781612398565b81146125c257600080fd5b5056fea2646970667358221220b2bc53c93159c26986a9418c57bb7e6237b73b379ab61b7513a7c875123d49e864736f6c63430008000033",
  "immutableReferences": {},
  "source": "// SPDX-License-Identifier: GPL-3.0\r\npragma solidity ^0.8.0;\r\n\r\ncontract DStore {\r\n\r\n    struct Product {\r\n        uint id;\r\n        string description;\r\n        uint price;\r\n        address payable owner;\r\n        bool sold;\r\n        address soldTo;\r\n        bool deleted;\r\n    }\r\n\r\n    event Added(Product product);\r\n    event Deleted(Product product);\r\n    event Sold(Product product);\r\n    event Edited(Product product);\r\n\r\n    uint startId;\r\n    uint curId;\r\n    Product[] array;\r\n    address public admin;\r\n    uint tollPercent;\r\n\r\n    constructor(uint _tollPercent,uint _startId){\r\n        startId=_startId;\r\n        curId = startId;\r\n        admin=msg.sender;\r\n        tollPercent=_tollPercent;\r\n    }\r\n\r\n    modifier expectsValidId(uint id){\r\n        \r\n        bool validId=id>=startId && id<startId+array.length;\r\n        require(validId,\"VALID ID EXPECTED\");\r\n        _;\r\n    }\r\n\r\n    modifier expectsAdmin(){\r\n        require(isAdmin(),\"ONLY ADMIN CAN DO THIS\");\r\n        _;\r\n    }\r\n\r\n    function isAdmin() public view returns (bool) {\r\n        return msg.sender==admin;\r\n    }\r\n\r\n    function getAdmin() public view returns (address) {\r\n        return admin;\r\n    }\r\n\r\n    modifier expectsValidProperties(string memory desc, uint price){\r\n        \r\n        bytes memory descBytes = bytes(desc);\r\n        require(descBytes.length>0,\"EMPTY DESCRIPTION NOT ALLOWED\");\r\n\r\n        require(price>=1 ether && price<=10 ether,\"PRICE CAN BE BETWEEN 1 AND 10 ETHERS\");\r\n        _;\r\n    }\r\n\r\n    modifier checkMaximumAddedFromAddress(){\r\n        \r\n        uint count=0;\r\n        Product storage p;\r\n        for (uint i = 0; i < array.length; i++) {\r\n            p=array[i];\r\n            if(!p.deleted && p.owner==msg.sender){\r\n                count++;\r\n            }\r\n        }\r\n        require(count<=1,\"MAXIMUM PRODUCTS ALLOWED FROM EACH ADDRESS IS TWO\");\r\n        _;\r\n    }\r\n\r\n    modifier checkMaximumBuyingFromAddress(){\r\n        \r\n        uint count=0;\r\n        Product storage p;\r\n        for (uint i = 0; i < array.length; i++) {\r\n            p=array[i];\r\n            if(!p.deleted && p.sold && p.soldTo==msg.sender){\r\n                count++;\r\n            }\r\n        }\r\n        require(count<=1,\"MAXIMUM BUYING FROM EACH ADDRESS IS TWO\");\r\n        _;\r\n    }\r\n\r\n    function getAll() public view returns (Product[] memory) {\r\n        uint effectiveCount=0;\r\n        for (uint i = 0; i < array.length; i++) {\r\n            if(!array[i].deleted){\r\n                effectiveCount++;\r\n            }\r\n        }\r\n\r\n        Product[] memory col=new Product[](effectiveCount);\r\n        Product memory p;\r\n        uint j=0;\r\n        for (uint i = 0; i < array.length; i++) {\r\n            p=array[i];\r\n            if(!p.deleted){\r\n                col[j]=p;\r\n                j++;\r\n            }\r\n        }\r\n        return col;\r\n    }\r\n    \r\n    function getMyProducts() public view returns (Product[] memory) {\r\n        \r\n        uint count=0;\r\n        for (uint i = 0; i < array.length; i++) {\r\n            if(!array[i].deleted && array[i].owner==msg.sender){\r\n                count++;\r\n            }\r\n        }\r\n\r\n        Product[] memory col=new Product[](count);\r\n        Product memory p;\r\n        uint j=0;\r\n        for (uint i = 0; i < array.length; i++) {\r\n            p=array[i];\r\n            if(!p.deleted && p.owner==msg.sender){\r\n                col[j]=p;\r\n                j++;\r\n            }\r\n        }\r\n        return col;\r\n    }\r\n\r\n    function add(string memory desc, uint price) public  \r\n        expectsValidProperties(desc, price)\r\n        checkMaximumAddedFromAddress(){\r\n\r\n        Product memory p=Product(curId, desc, price, payable(msg.sender), false,address(0),false);\r\n\r\n        array.push(p);\r\n\r\n        curId++;\r\n\r\n        emit Added(p);\r\n    }\r\n\r\n    function edit(uint id, string memory desc, uint price) public  \r\n        expectsValidProperties(desc, price){\r\n\r\n        Product storage p=getProduct(id);\r\n\r\n        require(p.owner==msg.sender,\"ONLY OWNER OF A PRODUCT CAN EDIT IT\");\r\n\r\n        p.description=desc;\r\n        p.price=price;\r\n        \r\n        emit Edited(p);\r\n    }\r\n\r\n   function getProduct(uint id) private view expectsValidId(id) returns(Product storage) {\r\n       \r\n       Product storage p=array[id-startId];\r\n       return p; \r\n   }\r\n\r\n   function deleteProduct(uint id) public expectsAdmin {\r\n       Product storage p=getProduct(id);\r\n       p.deleted=true;\r\n\r\n       emit Deleted(p);\r\n   }\r\n\r\n   function canDelete() public view returns(bool) {\r\n       return isAdmin();\r\n   }\r\n\r\n   function buy(uint id) public payable checkMaximumBuyingFromAddress() {\r\n\r\n        Product storage p=getProduct(id);\r\n\r\n        require(!p.sold,\"CANNOT BUY A SOLD PRODUCT\");\r\n        require(p.owner!=msg.sender,\"OWNER OF A PRODUCT CANNOT BUY IT\");\r\n        require(p.price==msg.value,\"INVALID PRICE VALUE SPECIFIED\");\r\n\r\n        uint price=p.price;\r\n\r\n        uint ownerGain=price*(100-tollPercent)/100;\r\n\r\n        p.owner.transfer(ownerGain);\r\n\r\n        //not needed(& doesn't work this way); it's done automatically \r\n        //uint contractGain=price*tollPercent/100;\r\n        //payable(address(this)).transfer(contractGain);\r\n        \r\n        p.soldTo=msg.sender;\r\n        p.sold=true;\r\n\r\n        emit Sold(p);\r\n    }\r\n\r\n   function getContractBalance() public view returns(uint) {\r\n       return address(this).balance;\r\n   }\r\n}",
  "sourcePath": "D:\\_LEARN\\Blockchain\\_JALASAT\\final\\Back\\contracts\\DStore.sol",
  "compiler": {
    "name": "solc",
    "version": "0.8.0+commit.c7dfd78e.Emscripten.clang"
  },
  "schemaVersion": "3.4.2",
  "updatedAt": "2021-10-21T18:59:58.191Z",
  "networkType": "ethereum",
  "devdoc": {
    "kind": "dev",
    "methods": {},
    "version": 1
  },
  "userdoc": {
    "kind": "user",
    "methods": {},
    "version": 1
  }
}